{"abi":[{"type":"fallback","stateMutability":"nonpayable"},{"type":"function","name":"setFallbackHandler","inputs":[{"name":"handler","type":"address","internalType":"address"}],"outputs":[],"stateMutability":"nonpayable"},{"type":"event","name":"ChangedFallbackHandler","inputs":[{"name":"handler","type":"address","indexed":false,"internalType":"address"}],"anonymous":false}],"bytecode":{"object":"0x6080604052348015600f57600080fd5b506101ac8061001f6000396000f3fe608060405234801561001057600080fd5b506004361061002b5760003560e01c8063f08a032314610084575b7f6c9a6c4a39284e37ed1cf53d337577d14212a4870fb976a4366c693b939918d580548061005557005b36600080373360601b365260008060143601600080855af190503d6000803e8061007e573d6000fd5b503d6000f35b610097610092366004610146565b610099565b005b6100a1610108565b6100c9817f6c9a6c4a39284e37ed1cf53d337577d14212a4870fb976a4366c693b939918d555565b6040516001600160a01b03821681527f5ac6c46c93c8d0e53714ba3b53db3e7c046da994313d7ed0d192028bc7c228b09060200160405180910390a150565b3330146101445760405162461bcd60e51b815260206004820152600660248201526542534130333160d01b604482015260640160405180910390fd5b565b60006020828403121561015857600080fd5b81356001600160a01b038116811461016f57600080fd5b939250505056fea2646970667358221220f1ca6646cf46cd9f3c9a2e46df43958ba6fb33e81663df2cae22d7b23fe9860464736f6c634300081a0033","linkReferences":{}},"methodIdentifiers":{"setFallbackHandler(address)":"f08a0323"},"id":49}