{"abi":[{"type":"function","name":"disableModule","inputs":[{"name":"prevModule","type":"address","internalType":"address"},{"name":"module","type":"address","internalType":"address"}],"outputs":[],"stateMutability":"nonpayable"},{"type":"function","name":"enableModule","inputs":[{"name":"module","type":"address","internalType":"address"}],"outputs":[],"stateMutability":"nonpayable"},{"type":"function","name":"execTransactionFromModule","inputs":[{"name":"to","type":"address","internalType":"address"},{"name":"value","type":"uint256","internalType":"uint256"},{"name":"data","type":"bytes","internalType":"bytes"},{"name":"operation","type":"uint8","internalType":"enum Enum.Operation"}],"outputs":[{"name":"success","type":"bool","internalType":"bool"}],"stateMutability":"nonpayable"},{"type":"function","name":"execTransactionFromModuleReturnData","inputs":[{"name":"to","type":"address","internalType":"address"},{"name":"value","type":"uint256","internalType":"uint256"},{"name":"data","type":"bytes","internalType":"bytes"},{"name":"operation","type":"uint8","internalType":"enum Enum.Operation"}],"outputs":[{"name":"success","type":"bool","internalType":"bool"},{"name":"returnData","type":"bytes","internalType":"bytes"}],"stateMutability":"nonpayable"},{"type":"function","name":"getModulesPaginated","inputs":[{"name":"start","type":"address","internalType":"address"},{"name":"pageSize","type":"uint256","internalType":"uint256"}],"outputs":[{"name":"array","type":"address[]","internalType":"address[]"},{"name":"next","type":"address","internalType":"address"}],"stateMutability":"view"},{"type":"function","name":"isModuleEnabled","inputs":[{"name":"module","type":"address","internalType":"address"}],"outputs":[{"name":"","type":"bool","internalType":"bool"}],"stateMutability":"view"},{"type":"event","name":"DisabledModule","inputs":[{"name":"module","type":"address","indexed":false,"internalType":"address"}],"anonymous":false},{"type":"event","name":"EnabledModule","inputs":[{"name":"module","type":"address","indexed":false,"internalType":"address"}],"anonymous":false},{"type":"event","name":"ExecutionFromModuleFailure","inputs":[{"name":"module","type":"address","indexed":true,"internalType":"address"}],"anonymous":false},{"type":"event","name":"ExecutionFromModuleSuccess","inputs":[{"name":"module","type":"address","indexed":true,"internalType":"address"}],"anonymous":false}],"bytecode":{"object":"0x6080604052348015600f57600080fd5b5061092b8061001f6000396000f3fe608060405234801561001057600080fd5b50600436106100625760003560e01c80632d9ad53d14610067578063468721a71461008f5780635229073f146100a2578063610b5925146100c3578063cc2f8452146100d8578063e009cfde146100f9575b600080fd5b61007a610075366004610660565b61010c565b60405190151581526020015b60405180910390f35b61007a61009d3660046106a7565b610147565b6100b56100b03660046106a7565b610224565b60405161008692919061078b565b6100d66100d1366004610660565b61025a565b005b6100eb6100e63660046107e2565b61039c565b60405161008692919061080c565b6100d661010736600461086f565b610495565b600060016001600160a01b0383161480159061014157506001600160a01b038281166000908152602081905260409020541615155b92915050565b6000336001148015906101715750336000908152602081905260409020546001600160a01b031615155b6101ab5760405162461bcd60e51b81526020600482015260066024820152651094d04c4c0d60d21b60448201526064015b60405180910390fd5b6101b8858585855a6105c3565b905080156101f05760405133907f6895c13664aa4f67288b25d7a21d7aaa34916e355fb9b6fae0a139a9085becb890600090a261021c565b60405133907facd2c8702804128fdb0db2bb49f6d127dd0181c13fd45dbfe16de0930e2bd37590600090a25b949350505050565b6000606061023486868686610147565b915060405160203d0181016040523d81523d6000602083013e8091505094509492505050565b61026261060a565b6001600160a01b0381161580159061028457506001600160a01b038116600114155b6102b95760405162461bcd60e51b815260206004820152600660248201526542534131303160d01b60448201526064016101a2565b6001600160a01b03818116600090815260208190526040902054161561030a5760405162461bcd60e51b81526020600482015260066024820152652129a098981960d11b60448201526064016101a2565b600060208181527fada5013122d395ba3c54772283fb069b10426056ef8ca54750cb9bb552a59e7d80546001600160a01b0385811680865260408087208054939094166001600160a01b03199384161790935560019095528254168417909155519182527fecdf3a3effea5783a3c4c2140e677577666428d44ed9d474a0b3a4c9943f8440910160405180910390a150565b606060008267ffffffffffffffff8111156103b9576103b9610682565b6040519080825280602002602001820160405280156103e2578160200160208202803683370190505b506001600160a01b0380861660009081526020819052604081205492945091165b6001600160a01b0381161580159061042557506001600160a01b038116600114155b801561043057508482105b156104875780848381518110610448576104486108a2565b6001600160a01b03928316602091820292909201810191909152918116600090815291829052604090912054168161047f816108b8565b925050610403565b908352919491935090915050565b61049d61060a565b6001600160a01b038116158015906104bf57506001600160a01b038116600114155b6104f45760405162461bcd60e51b815260206004820152600660248201526542534131303160d01b60448201526064016101a2565b6001600160a01b038281166000908152602081905260409020548116908216146105495760405162461bcd60e51b815260206004820152600660248201526542534131303360d01b60448201526064016101a2565b6001600160a01b03818116600081815260208181526040808320805488871685528285208054919097166001600160a01b03199182161790965592849052825490941690915591519081527faab4fa2b463f581b2b32cb3b7e3b704b9ce37cc209b5fb4d77e593ace4054276910160405180910390a15050565b600060018360018111156105d9576105d96108df565b036105f1576000808551602087018986f49050610601565b600080855160208701888a87f190505b95945050505050565b3330146106425760405162461bcd60e51b815260206004820152600660248201526542534130333160d01b60448201526064016101a2565b565b80356001600160a01b038116811461065b57600080fd5b919050565b60006020828403121561067257600080fd5b61067b82610644565b9392505050565b634e487b7160e01b600052604160045260246000fd5b80356002811061065b57600080fd5b600080600080608085870312156106bd57600080fd5b6106c685610644565b935060208501359250604085013567ffffffffffffffff8111156106e957600080fd5b8501601f810187136106fa57600080fd5b803567ffffffffffffffff81111561071457610714610682565b604051601f8201601f19908116603f0116810167ffffffffffffffff8111828210171561074357610743610682565b60405281815282820160200189101561075b57600080fd5b8160208401602083013760006020838301015280945050505061078060608601610698565b905092959194509250565b8215158152604060208201526000825180604084015260005b818110156107c157602081860181015160608684010152016107a4565b506000606082850101526060601f19601f8301168401019150509392505050565b600080604083850312156107f557600080fd5b6107fe83610644565b946020939093013593505050565b6040808252835190820181905260009060208501906060840190835b8181101561084f5783516001600160a01b0316835260209384019390920191600101610828565b50506001600160a01b039490941660209390930192909252509092915050565b6000806040838503121561088257600080fd5b61088b83610644565b915061089960208401610644565b90509250929050565b634e487b7160e01b600052603260045260246000fd5b6000600182016108d857634e487b7160e01b600052601160045260246000fd5b5060010190565b634e487b7160e01b600052602160045260246000fdfea2646970667358221220a504b15d3c7a98b63c20e5687927d5a9201d74319edee069afd4d6699295b6b564736f6c634300081a0033","linkReferences":{}},"methodIdentifiers":{"disableModule(address,address)":"e009cfde","enableModule(address)":"610b5925","execTransactionFromModule(address,uint256,bytes,uint8)":"468721a7","execTransactionFromModuleReturnData(address,uint256,bytes,uint8)":"5229073f","getModulesPaginated(address,uint256)":"cc2f8452","isModuleEnabled(address)":"2d9ad53d"},"id":50}