{"abi":[{"type":"function","name":"VERSION","inputs":[],"outputs":[{"name":"","type":"string","internalType":"string"}],"stateMutability":"view"},{"type":"function","name":"entryPoint","inputs":[],"outputs":[{"name":"","type":"address","internalType":"address"}],"stateMutability":"view"},{"type":"function","name":"nonces","inputs":[{"name":"","type":"uint256","internalType":"uint256"}],"outputs":[{"name":"","type":"uint256","internalType":"uint256"}],"stateMutability":"view"},{"type":"function","name":"owner","inputs":[],"outputs":[{"name":"","type":"address","internalType":"address"}],"stateMutability":"view"}],"bytecode":{"object":"0x6080604052348015600f57600080fd5b506101908061001f6000396000f3fe608060405234801561001057600080fd5b506004361061004c5760003560e01c8063141a468c146100515780638da5cb5b14610084578063b0d691fe146100af578063ffa1ad74146100c2575b600080fd5b61007161005f3660046100f3565b60016020526000908152604090205481565b6040519081526020015b60405180910390f35b600054610097906001600160a01b031681565b6040516001600160a01b03909116815260200161007b565b600254610097906001600160a01b031681565b6100e660405180604001604052806005815260200164312e302e3160d81b81525081565b60405161007b919061010c565b60006020828403121561010557600080fd5b5035919050565b602081526000825180602084015260005b8181101561013a576020818601810151604086840101520161011d565b506000604082850101526040601f19601f8301168401019150509291505056fea26469706673582212205083ab96508bdc7bb83486b4c3538456fb08715fe25248ee313762e98673658664736f6c634300081a0033","linkReferences":{}},"methodIdentifiers":{"VERSION()":"ffa1ad74","entryPoint()":"b0d691fe","nonces(uint256)":"141a468c","owner()":"8da5cb5b"},"id":61}