{"abi":[{"type":"constructor","inputs":[{"name":"entryPoint_","type":"address","internalType":"contract IEntryPoint"}],"stateMutability":"nonpayable"},{"type":"fallback","stateMutability":"nonpayable"},{"type":"function","name":"VERSION","inputs":[],"outputs":[{"name":"","type":"string","internalType":"string"}],"stateMutability":"view"},{"type":"function","name":"checkSignatures","inputs":[{"name":"dataHash","type":"bytes32","internalType":"bytes32"},{"name":"data","type":"bytes","internalType":"bytes"},{"name":"signatures","type":"bytes","internalType":"bytes"}],"outputs":[],"stateMutability":"view"},{"type":"function","name":"disableModule","inputs":[{"name":"prevModule","type":"address","internalType":"address"},{"name":"module","type":"address","internalType":"address"}],"outputs":[],"stateMutability":"nonpayable"},{"type":"function","name":"domainSeparator","inputs":[],"outputs":[{"name":"","type":"bytes32","internalType":"bytes32"}],"stateMutability":"view"},{"type":"function","name":"enableModule","inputs":[{"name":"module","type":"address","internalType":"address"}],"outputs":[],"stateMutability":"nonpayable"},{"type":"function","name":"encodeTransactionData","inputs":[{"name":"_tx","type":"tuple","internalType":"struct WalletStorage.Transaction","components":[{"name":"to","type":"address","internalType":"address"},{"name":"value","type":"uint256","internalType":"uint256"},{"name":"data","type":"bytes","internalType":"bytes"},{"name":"operation","type":"uint8","internalType":"enum Enum.Operation"},{"name":"targetTxGas","type":"uint256","internalType":"uint256"}]},{"name":"refundInfo","type":"tuple","internalType":"struct WalletStorage.FeeRefund","components":[{"name":"baseGas","type":"uint256","internalType":"uint256"},{"name":"gasPrice","type":"uint256","internalType":"uint256"},{"name":"tokenGasPriceFactor","type":"uint256","internalType":"uint256"},{"name":"gasToken","type":"address","internalType":"address"},{"name":"refundReceiver","type":"address","internalType":"address payable"}]},{"name":"_nonce","type":"uint256","internalType":"uint256"}],"outputs":[{"name":"","type":"bytes","internalType":"bytes"}],"stateMutability":"view"},{"type":"function","name":"entryPoint","inputs":[],"outputs":[{"name":"","type":"address","internalType":"address"}],"stateMutability":"view"},{"type":"function","name":"exec","inputs":[{"name":"dest","type":"address","internalType":"address"},{"name":"value","type":"uint256","internalType":"uint256"},{"name":"func","type":"bytes","internalType":"bytes"}],"outputs":[],"stateMutability":"nonpayable"},{"type":"function","name":"execBatch","inputs":[{"name":"dest","type":"address[]","internalType":"address[]"},{"name":"func","type":"bytes[]","internalType":"bytes[]"}],"outputs":[],"stateMutability":"nonpayable"},{"type":"function","name":"execFromEntryPoint","inputs":[{"name":"dest","type":"address","internalType":"address"},{"name":"value","type":"uint256","internalType":"uint256"},{"name":"func","type":"bytes","internalType":"bytes"}],"outputs":[],"stateMutability":"nonpayable"},{"type":"function","name":"execTransaction","inputs":[{"name":"_tx","type":"tuple","internalType":"struct WalletStorage.Transaction","components":[{"name":"to","type":"address","internalType":"address"},{"name":"value","type":"uint256","internalType":"uint256"},{"name":"data","type":"bytes","internalType":"bytes"},{"name":"operation","type":"uint8","internalType":"enum Enum.Operation"},{"name":"targetTxGas","type":"uint256","internalType":"uint256"}]},{"name":"batchId","type":"uint256","internalType":"uint256"},{"name":"refundInfo","type":"tuple","internalType":"struct WalletStorage.FeeRefund","components":[{"name":"baseGas","type":"uint256","internalType":"uint256"},{"name":"gasPrice","type":"uint256","internalType":"uint256"},{"name":"tokenGasPriceFactor","type":"uint256","internalType":"uint256"},{"name":"gasToken","type":"address","internalType":"address"},{"name":"refundReceiver","type":"address","internalType":"address payable"}]},{"name":"signatures","type":"bytes","internalType":"bytes"}],"outputs":[{"name":"success","type":"bool","internalType":"bool"}],"stateMutability":"payable"},{"type":"function","name":"execTransactionFromModule","inputs":[{"name":"to","type":"address","internalType":"address"},{"name":"value","type":"uint256","internalType":"uint256"},{"name":"data","type":"bytes","internalType":"bytes"},{"name":"operation","type":"uint8","internalType":"enum Enum.Operation"}],"outputs":[{"name":"success","type":"bool","internalType":"bool"}],"stateMutability":"nonpayable"},{"type":"function","name":"execTransactionFromModuleReturnData","inputs":[{"name":"to","type":"address","internalType":"address"},{"name":"value","type":"uint256","internalType":"uint256"},{"name":"data","type":"bytes","internalType":"bytes"},{"name":"operation","type":"uint8","internalType":"enum Enum.Operation"}],"outputs":[{"name":"success","type":"bool","internalType":"bool"},{"name":"returnData","type":"bytes","internalType":"bytes"}],"stateMutability":"nonpayable"},{"type":"function","name":"getChainId","inputs":[],"outputs":[{"name":"","type":"uint256","internalType":"uint256"}],"stateMutability":"view"},{"type":"function","name":"getModulesPaginated","inputs":[{"name":"start","type":"address","internalType":"address"},{"name":"pageSize","type":"uint256","internalType":"uint256"}],"outputs":[{"name":"array","type":"address[]","internalType":"address[]"},{"name":"next","type":"address","internalType":"address"}],"stateMutability":"view"},{"type":"function","name":"getNonce","inputs":[{"name":"batchId","type":"uint256","internalType":"uint256"}],"outputs":[{"name":"","type":"uint256","internalType":"uint256"}],"stateMutability":"view"},{"type":"function","name":"getTransactionHash","inputs":[{"name":"to","type":"address","internalType":"address"},{"name":"value","type":"uint256","internalType":"uint256"},{"name":"data","type":"bytes","internalType":"bytes"},{"name":"operation","type":"uint8","internalType":"enum Enum.Operation"},{"name":"targetTxGas","type":"uint256","internalType":"uint256"},{"name":"baseGas","type":"uint256","internalType":"uint256"},{"name":"gasPrice","type":"uint256","internalType":"uint256"},{"name":"tokenGasPriceFactor","type":"uint256","internalType":"uint256"},{"name":"gasToken","type":"address","internalType":"address"},{"name":"refundReceiver","type":"address","internalType":"address payable"},{"name":"_nonce","type":"uint256","internalType":"uint256"}],"outputs":[{"name":"","type":"bytes32","internalType":"bytes32"}],"stateMutability":"view"},{"type":"function","name":"handlePaymentRevert","inputs":[{"name":"gasUsed","type":"uint256","internalType":"uint256"},{"name":"baseGas","type":"uint256","internalType":"uint256"},{"name":"gasPrice","type":"uint256","internalType":"uint256"},{"name":"tokenGasPriceFactor","type":"uint256","internalType":"uint256"},{"name":"gasToken","type":"address","internalType":"address"},{"name":"refundReceiver","type":"address","internalType":"address payable"}],"outputs":[{"name":"payment","type":"uint256","internalType":"uint256"}],"stateMutability":"nonpayable"},{"type":"function","name":"init","inputs":[{"name":"_owner","type":"address","internalType":"address"},{"name":"_entryPoint","type":"address","internalType":"address"},{"name":"_handler","type":"address","internalType":"address"}],"outputs":[],"stateMutability":"nonpayable"},{"type":"function","name":"initialize","inputs":[{"name":"owner","type":"address","internalType":"address"},{"name":"entryPoint","type":"address","internalType":"address"},{"name":"handler","type":"address","internalType":"address"}],"outputs":[],"stateMutability":"nonpayable"},{"type":"function","name":"isModuleEnabled","inputs":[{"name":"module","type":"address","internalType":"address"}],"outputs":[{"name":"","type":"bool","internalType":"bool"}],"stateMutability":"view"},{"type":"function","name":"nonces","inputs":[{"name":"","type":"uint256","internalType":"uint256"}],"outputs":[{"name":"","type":"uint256","internalType":"uint256"}],"stateMutability":"view"},{"type":"function","name":"owner","inputs":[],"outputs":[{"name":"","type":"address","internalType":"address"}],"stateMutability":"view"},{"type":"function","name":"pullTokens","inputs":[{"name":"token","type":"address","internalType":"address"},{"name":"dest","type":"address","internalType":"address"},{"name":"amount","type":"uint256","internalType":"uint256"}],"outputs":[],"stateMutability":"nonpayable"},{"type":"function","name":"requiredTxGas","inputs":[{"name":"to","type":"address","internalType":"address"},{"name":"value","type":"uint256","internalType":"uint256"},{"name":"data","type":"bytes","internalType":"bytes"},{"name":"operation","type":"uint8","internalType":"enum Enum.Operation"}],"outputs":[{"name":"","type":"uint256","internalType":"uint256"}],"stateMutability":"nonpayable"},{"type":"function","name":"setFallbackHandler","inputs":[{"name":"handler","type":"address","internalType":"address"}],"outputs":[],"stateMutability":"nonpayable"},{"type":"function","name":"setOwner","inputs":[{"name":"_newOwner","type":"address","internalType":"address"}],"outputs":[],"stateMutability":"nonpayable"},{"type":"function","name":"supportsInterface","inputs":[{"name":"interfaceId","type":"bytes4","internalType":"bytes4"}],"outputs":[{"name":"","type":"bool","internalType":"bool"}],"stateMutability":"view"},{"type":"function","name":"transfer","inputs":[{"name":"dest","type":"address","internalType":"address payable"},{"name":"amount","type":"uint256","internalType":"uint256"}],"outputs":[],"stateMutability":"nonpayable"},{"type":"function","name":"updateEntryPoint","inputs":[{"name":"_entryPoint","type":"address","internalType":"address"}],"outputs":[],"stateMutability":"nonpayable"},{"type":"function","name":"updateImplementation","inputs":[{"name":"_implementation","type":"address","internalType":"address"}],"outputs":[],"stateMutability":"nonpayable"},{"type":"function","name":"validateUserOp","inputs":[{"name":"userOp","type":"tuple","internalType":"struct UserOperation","components":[{"name":"sender","type":"address","internalType":"address"},{"name":"nonce","type":"uint256","internalType":"uint256"},{"name":"initCode","type":"bytes","internalType":"bytes"},{"name":"callData","type":"bytes","internalType":"bytes"},{"name":"callGas","type":"uint256","internalType":"uint256"},{"name":"verificationGas","type":"uint256","internalType":"uint256"},{"name":"preVerificationGas","type":"uint256","internalType":"uint256"},{"name":"maxFeePerGas","type":"uint256","internalType":"uint256"},{"name":"maxPriorityFeePerGas","type":"uint256","internalType":"uint256"},{"name":"paymaster","type":"address","internalType":"address"},{"name":"paymasterData","type":"bytes","internalType":"bytes"},{"name":"signature","type":"bytes","internalType":"bytes"}]},{"name":"requestId","type":"bytes32","internalType":"bytes32"},{"name":"requiredPrefund","type":"uint256","internalType":"uint256"}],"outputs":[],"stateMutability":"nonpayable"},{"type":"event","name":"ChangedFallbackHandler","inputs":[{"name":"handler","type":"address","indexed":false,"internalType":"address"}],"anonymous":false},{"type":"event","name":"DisabledModule","inputs":[{"name":"module","type":"address","indexed":false,"internalType":"address"}],"anonymous":false},{"type":"event","name":"EOAChanged","inputs":[{"name":"_scw","type":"address","indexed":true,"internalType":"address"},{"name":"_oldEOA","type":"address","indexed":true,"internalType":"address"},{"name":"_newEOA","type":"address","indexed":true,"internalType":"address"}],"anonymous":false},{"type":"event","name":"EnabledModule","inputs":[{"name":"module","type":"address","indexed":false,"internalType":"address"}],"anonymous":false},{"type":"event","name":"EntryPointChanged","inputs":[{"name":"oldEntryPoint","type":"address","indexed":false,"internalType":"address"},{"name":"newEntryPoint","type":"address","indexed":false,"internalType":"address"}],"anonymous":false},{"type":"event","name":"ExecutionFailure","inputs":[{"name":"txHash","type":"bytes32","indexed":false,"internalType":"bytes32"},{"name":"payment","type":"uint256","indexed":false,"internalType":"uint256"}],"anonymous":false},{"type":"event","name":"ExecutionFromModuleFailure","inputs":[{"name":"module","type":"address","indexed":true,"internalType":"address"}],"anonymous":false},{"type":"event","name":"ExecutionFromModuleSuccess","inputs":[{"name":"module","type":"address","indexed":true,"internalType":"address"}],"anonymous":false},{"type":"event","name":"ExecutionSuccess","inputs":[{"name":"txHash","type":"bytes32","indexed":false,"internalType":"bytes32"},{"name":"payment","type":"uint256","indexed":false,"internalType":"uint256"}],"anonymous":false},{"type":"event","name":"ImplementationUpdated","inputs":[{"name":"_scw","type":"address","indexed":false,"internalType":"address"},{"name":"version","type":"string","indexed":false,"internalType":"string"},{"name":"newImplementation","type":"address","indexed":false,"internalType":"address"}],"anonymous":false},{"type":"event","name":"Initialized","inputs":[{"name":"version","type":"uint64","indexed":false,"internalType":"uint64"}],"anonymous":false},{"type":"error","name":"InvalidInitialization","inputs":[]},{"type":"error","name":"NotInitializing","inputs":[]},{"type":"error","name":"SafeERC20FailedOperation","inputs":[{"name":"token","type":"address","internalType":"address"}]}],"bytecode":{"object":"0x6080604052348015600f57600080fd5b50604051613654380380613654833981016040819052602c916031565b50605f565b600060208284031215604257600080fd5b81516001600160a01b0381168114605857600080fd5b9392505050565b6135e68061006e6000396000f3fe6080604052600436106101e35760003560e01c80638da5cb5b11610102578063c4ca3a9c11610095578063f08a032311610064578063f08a032314610640578063f698da2514610660578063fcbac1f414610675578063ffa1ad7414610695576101e3565b8063c4ca3a9c146105b2578063cc2f8452146105d2578063d0cb75fa14610600578063e009cfde14610620576101e3565b8063abc1b745116100d1578063abc1b74514610532578063ac85dca714610552578063b0d691fe14610572578063c0c53b8b14610592576101e3565b80638da5cb5b1461049a578063934f3a11146104d2578063a18f51e5146104f2578063a9059cbb14610512576101e3565b80632d9ad53d1161017a5780635229073f116101495780635229073f146103ff578063610b59251461042d578063670578b31461044d57806380c5c7d01461047a576101e3565b80632d9ad53d1461037f5780633408e4701461039f5780633d46b819146103b2578063468721a7146103df576101e3565b8063141a468c116101b6578063141a468c146102f1578063184b95591461032c5780631b71bb6e1461034c57806320cf8fa41461036c576101e3565b806301ffc9a714610249578063025b22bc1461028f5780630565bb67146102b157806313af4035146102d1575b3480156101ef57600080fd5b507f6c9a6c4a39284e37ed1cf53d337577d14212a4870fb976a4366c693b939918d580548061021a57005b36600080373360601b365260008060143601600080855af190503d6000803e80610243573d6000fd5b503d6000f35b34801561025557600080fd5b5061027a6102643660046129f4565b6001600160e01b0319166301ffc9a760e01b1490565b60405190151581526020015b60405180910390f35b34801561029b57600080fd5b506102af6102aa366004612a36565b6106c6565b005b3480156102bd57600080fd5b506102af6102cc366004612a94565b6107b7565b3480156102dd57600080fd5b506102af6102ec366004612a36565b610828565b3480156102fd57600080fd5b5061031e61030c366004612aef565b60016020526000908152604090205481565b604051908152602001610286565b34801561033857600080fd5b506102af610347366004612b08565b61091b565b34801561035857600080fd5b506102af610367366004612a36565b610bc8565b61027a61037a366004612d0e565b610cda565b34801561038b57600080fd5b5061027a61039a366004612a36565b610f29565b3480156103ab57600080fd5b504661031e565b3480156103be57600080fd5b5061031e6103cd366004612aef565b60009081526001602052604090205490565b3480156103eb57600080fd5b5061027a6103fa366004612d91565b610f64565b34801561040b57600080fd5b5061041f61041a366004612d91565b61103c565b604051610286929190612e4a565b34801561043957600080fd5b506102af610448366004612a36565b611072565b34801561045957600080fd5b5061046d610468366004612e65565b6111b1565b6040516102869190612ebd565b34801561048657600080fd5b506102af610495366004612a94565b61128e565b3480156104a657600080fd5b506000546104ba906001600160a01b031681565b6040516001600160a01b039091168152602001610286565b3480156104de57600080fd5b506102af6104ed366004612ed0565b611296565b3480156104fe57600080fd5b5061031e61050d366004612f40565b611622565b34801561051e57600080fd5b506102af61052d366004612f9e565b6117b2565b34801561053e57600080fd5b5061031e61054d366004612fca565b6118cc565b34801561055e57600080fd5b506102af61056d366004613097565b61199f565b34801561057e57600080fd5b506002546104ba906001600160a01b031681565b34801561059e57600080fd5b506102af6105ad366004612b08565b6119d5565b3480156105be57600080fd5b5061031e6105cd3660046130d8565b611a97565b3480156105de57600080fd5b506105f26105ed366004612f9e565b611af6565b604051610286929190613148565b34801561060c57600080fd5b506102af61061b3660046131ef565b611bef565b34801561062c57600080fd5b506102af61063b366004613252565b611d02565b34801561064c57600080fd5b506102af61065b366004612a36565b611e32565b34801561066c57600080fd5b5061031e611e9b565b34801561068157600080fd5b506102af61069036600461328b565b611ef2565b3480156106a157600080fd5b5061046d60405180604001604052806005815260200164312e302e3160d81b81525081565b6000546001600160a01b03163314806106de57503330145b6107035760405162461bcd60e51b81526004016106fa906132de565b60405180910390fd5b6001600160a01b0381163b6107535760405162461bcd60e51b815260206004820152601660248201527524a72b20a624a22fa4a6a82622a6a2a72a20aa24a7a760511b60448201526064016106fa565b61075c81611f2c565b7f31c5374dcc95d137f3c21741a151157300dc87c02ffd59e4a177713557a916b13060405180604001604052806005815260200164312e302e3160d81b815250836040516107ac9392919061330a565b60405180910390a150565b6000546001600160a01b031633146107e15760405162461bcd60e51b81526004016106fa90613346565b610822848484848080601f016020809104026020016040519081016040528093929190818152602001838380828437600092019190915250611fa992505050565b50505050565b6000546001600160a01b031633148061084057503330145b61085c5760405162461bcd60e51b81526004016106fa906132de565b6001600160a01b0381166108cf5760405162461bcd60e51b815260206004820152603460248201527f536d617274204163636f756e743a3a206e6577205369676e61746f727920616460448201527364726573732063616e6e6f74206265207a65726f60601b60648201526084016106fa565b600080546001600160a01b0319166001600160a01b03831690811782556040519091829130917ff2c2b1b5312b1e31ad49a7d85acd6322ae6facc51488810b882ecdb4df861cd491a450565b7ff0c57e16840df040f15088dc2f81fe391c3923bec73e23a9662efc9c229c6a008054600160401b810460ff1615906001600160401b03166000811580156109605750825b90506000826001600160401b0316600114801561097c5750303b155b90508115801561098a575080155b156109a85760405163f92ee8a960e01b815260040160405180910390fd5b845467ffffffffffffffff1916600117855583156109d257845460ff60401b1916600160401b1785555b6000546001600160a01b031615610a215760405162461bcd60e51b8152602060048201526013602482015272105b1c9958591e481a5b9a5d1a585b1a5e9959606a1b60448201526064016106fa565b6002546001600160a01b031615610a705760405162461bcd60e51b8152602060048201526013602482015272105b1c9958591e481a5b9a5d1a585b1a5e9959606a1b60448201526064016106fa565b6001600160a01b038816610ab65760405162461bcd60e51b815260206004820152600d60248201526c24b73b30b634b21037bbb732b960991b60448201526064016106fa565b6001600160a01b038716610b015760405162461bcd60e51b8152602060048201526012602482015271125b9d985b1a5908115b9d1c9e5c1bda5b9d60721b60448201526064016106fa565b600080546001600160a01b03808b166001600160a01b031992831617909255600280548a84169216919091179055861615610b5e57610b5e867f6c9a6c4a39284e37ed1cf53d337577d14212a4870fb976a4366c693b939918d555565b610b78600060405180602001604052806000815250612019565b8315610bbe57845460ff60401b19168555604051600181527fc7f505b2f371ae2175ee4913f4499e1f2633a7b5936321eed1cdaeb6115181d29060200160405180910390a15b5050505050505050565b6000546001600160a01b0316331480610be057503330145b610bfc5760405162461bcd60e51b81526004016106fa906132de565b6001600160a01b038116610c715760405162461bcd60e51b815260206004820152603660248201527f536d617274204163636f756e743a3a206e657720656e74727920706f696e7420604482015275616464726573732063616e6e6f74206265207a65726f60501b60648201526084016106fa565b600254604080516001600160a01b03928316815291831660208301527f450909c1478d09248269d4ad4fa8cba61ca3f50faed58c7aedefa51c7f62b83a910160405180910390a1600280546001600160a01b0319166001600160a01b0392909216919091179055565b600080610ce83660086133a4565b5a610cf5906152086133bb565b610cff91906133bb565b9050600080610d228887600160008b8152602001908152602001600020546111b1565b6000888152600160205260408120805492935090610d3f836133ce565b9091555050805160208201209150610d58828287611296565b50610d8f603f88608001516040610d6f91906133a4565b610d7991906133e7565b6080890151610d8a906109c46133bb565b612119565b610d9b906101f46133bb565b5a1015610dd35760405162461bcd60e51b815260206004820152600660248201526504253413031360d41b60448201526064016106fa565b610e138760000151886020015189604001518a606001518960200151600014610e00578b60800151612132565b6109c45a610e0e9190613409565b612132565b92508280610e245750608087015115155b80610e325750602085015115155b610e675760405162461bcd60e51b815260206004820152600660248201526542534130313360d01b60448201526064016106fa565b602085015160009015610ea057610e9d5a610e829085613409565b8751602089015160408a015160608b015160808c0151612179565b90505b8315610ee45760408051838152602081018390527f442e715f626346e8c54381002da614f62bee8d27386535b2521ec8540898556e910160405180910390a1610f1e565b60408051838152602081018390527f23428b18acfb3ea64b08dc0c1d296ea9c09702c09083ca5272e64d115b687d23910160405180910390a15b505050949350505050565b600060016001600160a01b03831614801590610f5e57506001600160a01b038281166000908152600360205260409020541615155b92915050565b600033600114801590610f8e5750336000908152600360205260409020546001600160a01b031615155b610fc35760405162461bcd60e51b81526020600482015260066024820152651094d04c4c0d60d21b60448201526064016106fa565b610fd0858585855a612132565b905080156110085760405133907f6895c13664aa4f67288b25d7a21d7aaa34916e355fb9b6fae0a139a9085becb890600090a2611034565b60405133907facd2c8702804128fdb0db2bb49f6d127dd0181c13fd45dbfe16de0930e2bd37590600090a25b949350505050565b6000606061104c86868686610f64565b915060405160203d0181016040523d81523d6000602083013e8091505094509492505050565b61107a6122c7565b6001600160a01b0381161580159061109c57506001600160a01b038116600114155b6110d15760405162461bcd60e51b815260206004820152600660248201526542534131303160d01b60448201526064016106fa565b6001600160a01b0381811660009081526003602052604090205416156111225760405162461bcd60e51b81526020600482015260066024820152652129a098981960d11b60448201526064016106fa565b600360209081527fa15bc60c955c405d20d9149c709e2460f1c2d9a497496a7f46004d1772c3054c80546001600160a01b03848116600081815260408082208054949095166001600160a01b0319948516179094556001905283549091168117909255519081527fecdf3a3effea5783a3c4c2140e677577666428d44ed9d474a0b3a4c9943f844091016107ac565b82516020808501516040808701518051908401206060888101516080808b01518a518b8901518c860151938d01519751959a60009a61121d9a7feedfef42e81fe8cd0e4185e4320e9f8d52fd97eb890b85fa9bd7ad97c9a18de29a9299909890979692918f9101613432565b60408051601f1981840301815291905280516020909101209050601960f81b600160f81b611249611e9b565b6040516001600160f81b031993841660208201529290911660218301526022820152604281018290526062016040516020818303038152906040529150509392505050565b6107e1612301565b60208101516040820151604183015160ff1691906000808481036114565750826112c2600160416133a4565b8310156112fa5760405162461bcd60e51b815260206004820152600660248201526542534130323160d01b60448201526064016106fa565b85516113078460206133bb565b111561133e5760405162461bcd60e51b81526020600482015260066024820152652129a098191960d11b60448201526064016106fa565b60208387018101518751909182906113579087906133bb565b61136191906133bb565b11156113985760405162461bcd60e51b815260206004820152600660248201526542534130323360d01b60448201526064016106fa565b6040516320c13b0b60e01b808252888601602001916001600160a01b038516906320c13b0b906113ce908d9086906004016134c7565b602060405180830381865afa1580156113eb573d6000803e3d6000fd5b505050506040513d601f19601f8201168201806040525081019061140f91906134ec565b6001600160e01b0319161461144f5760405162461bcd60e51b81526020600482015260066024820152651094d04c0c8d60d21b60448201526064016106fa565b5050610bbe565b601e8560ff16111561156f576040517f19457468657265756d205369676e6564204d6573736167653a0a3332000000006020820152603c8101899052600190605c01604051602081830303815290604052805190602001206004876114bb9190613509565b6040805160008152602081018083529390935260ff90911690820152606081018690526080810185905260a0016020604051602081039080840390855afa15801561150a573d6000803e3d6000fd5b5050604051601f1901516000549092506001600160a01b03808416911614905061156a5760405162461bcd60e51b8152602060048201526011602482015270494e56414c49445f5349474e415455524560781b60448201526064016106fa565b610bbe565b6040805160008152602081018083528a905260ff871691810191909152606081018590526080810184905260019060a0016020604051602081039080840390855afa1580156115c2573d6000803e3d6000fd5b5050604051601f1901516000549092506001600160a01b038084169116149050610bbe5760405162461bcd60e51b8152602060048201526011602482015270494e56414c49445f5349474e415455524560781b60448201526064016106fa565b6000805a905060006001600160a01b0384161561163f5783611641565b325b90506001600160a01b038516611708573a871061165e573a611660565b865b61166a898b6133bb565b61167491906133a4565b92506000816001600160a01b03168460405160006040518083038185875af1925050503d80600081146116c3576040519150601f19603f3d011682016040523d82523d6000602084013e6116c8565b606091505b50509050806117025760405162461bcd60e51b815260206004820152600660248201526542534130313160d01b60448201526064016106fa565b5061176a565b85876117148a8c6133bb565b61171e91906133a4565b61172891906133e7565b925061173585828561235b565b61176a5760405162461bcd60e51b81526020600482015260066024820152652129a098189960d11b60448201526064016106fa565b60005a6117779084613409565b90508060405160200161178c91815260200190565b60408051601f198184030181529082905262461bcd60e51b82526106fa91600401612ebd565b6000546001600160a01b031633146117dc5760405162461bcd60e51b81526004016106fa90613346565b6001600160a01b0382166118325760405162461bcd60e51b815260206004820181905260248201527f7468697320616374696f6e2077696c6c206275726e20796f75722066756e647360448201526064016106fa565b6000826001600160a01b03168260405160006040518083038185875af1925050503d806000811461187f576040519150601f19603f3d011682016040523d82523d6000602084013e611884565b606091505b50509050806118c75760405162461bcd60e51b815260206004820152600f60248201526e1d1c985b9cd9995c8819985a5b1959608a1b60448201526064016106fa565b505050565b6000806040518060a001604052808f6001600160a01b031681526020018e81526020018d8d8080601f0160208091040260200160405190810160405280939291908181526020018383808284376000920191909152505050908252506020018b600181111561193d5761193d61341c565b815260209081018b90526040805160a0810182528b81529182018a905281018890526001600160a01b038088166060830152861660808201529091506119848282866111b1565b80519060200120925050509c9b505050505050505050505050565b6000546001600160a01b031633146119c95760405162461bcd60e51b81526004016106fa90613346565b826108228184846123ea565b7ff0c57e16840df040f15088dc2f81fe391c3923bec73e23a9662efc9c229c6a008054600160401b810460ff1615906001600160401b0316600081158015611a1a5750825b90506000826001600160401b03166001148015611a365750303b155b905081158015611a44575080155b15611a625760405163f92ee8a960e01b815260040160405180910390fd5b845467ffffffffffffffff191660011785558315611a8c57845460ff60401b1916600160401b1785555b610b7888888861091b565b6000805a9050611ae0878787878080601f01602080910402602001604051908101604052809392919081815260200183838082843760009201919091525089925050505a612132565b611ae957600080fd5b60005a6117779083613409565b60606000826001600160401b03811115611b1257611b12612b53565b604051908082528060200260200182016040528015611b3b578160200160208202803683370190505b506001600160a01b0380861660009081526003602052604081205492945091165b6001600160a01b03811615801590611b7e57506001600160a01b038116600114155b8015611b8957508482105b15611be15780848381518110611ba157611ba1613522565b6001600160a01b03928316602091820292909201810191909152918116600090815260039092526040909120541681611bd9816133ce565b925050611b5c565b908352919491935090915050565b6000546001600160a01b03163314611c195760405162461bcd60e51b81526004016106fa90613346565b828114611c5e5760405162461bcd60e51b815260206004820152601360248201527277726f6e67206172726179206c656e6774687360681b60448201526064016106fa565b60005b83811015611cfb57611cf3858583818110611c7e57611c7e613522565b9050602002016020810190611c939190612a36565b6000858585818110611ca757611ca7613522565b9050602002810190611cb99190613538565b8080601f016020809104026020016040519081016040528093929190818152602001838380828437600092019190915250611fa992505050565b600101611c61565b5050505050565b611d0a6122c7565b6001600160a01b03811615801590611d2c57506001600160a01b038116600114155b611d615760405162461bcd60e51b815260206004820152600660248201526542534131303160d01b60448201526064016106fa565b6001600160a01b03828116600090815260036020526040902054811690821614611db65760405162461bcd60e51b815260206004820152600660248201526542534131303360d01b60448201526064016106fa565b6001600160a01b038181166000818152600360209081526040808320805488871685528285208054919097166001600160a01b03199182161790965592849052825490941690915591519081527faab4fa2b463f581b2b32cb3b7e3b704b9ce37cc209b5fb4d77e593ace4054276910160405180910390a15050565b611e3a6122c7565b611e62817f6c9a6c4a39284e37ed1cf53d337577d14212a4870fb976a4366c693b939918d555565b6040516001600160a01b03821681527f5ac6c46c93c8d0e53714ba3b53db3e7c046da994313d7ed0d192028bc7c228b0906020016107ac565b60007f47e79534a245952e8b16893a336b85a3d9ea9fa8c573f3d803afb92a794692184660408051602081019390935282015230606082015260800160405160208183030381529060405280519060200120905090565b611efa612301565b611f04838361243c565b611f116040840184613538565b9050600003611f2357611f2383612542565b6118c7816125cb565b611f5760017f37722d148fb373b961a84120b6c8d209709b45377878a466db32bbc40d95af27613409565b7f37722d148fb373b961a84120b6c8d209709b45377878a466db32bbc40d95af2614611f8557611f8561357e565b7f37722d148fb373b961a84120b6c8d209709b45377878a466db32bbc40d95af2655565b600080846001600160a01b03168484604051611fc59190613594565b60006040518083038185875af1925050503d8060008114612002576040519150601f19603f3d011682016040523d82523d6000602084013e612007565b606091505b509150915081611cfb57805160208201fd5b600160005260036020527fa15bc60c955c405d20d9149c709e2460f1c2d9a497496a7f46004d1772c3054c546001600160a01b0316156120845760405162461bcd60e51b815260206004820152600660248201526504253413130360d41b60448201526064016106fa565b6001600081905260036020527fa15bc60c955c405d20d9149c709e2460f1c2d9a497496a7f46004d1772c3054c80546001600160a01b03191690911790556001600160a01b03821615612115576120e08260008360015a612132565b6121155760405162461bcd60e51b815260206004820152600660248201526504253413030360d41b60448201526064016106fa565b5050565b600081831015612129578161212b565b825b9392505050565b600060018360018111156121485761214861341c565b03612160576000808551602087018986f49050612170565b600080855160208701888a87f190505b95945050505050565b6000806001600160a01b038316156121915782612193565b325b90506001600160a01b03841661225a573a86106121b0573a6121b2565b855b6121bc888a6133bb565b6121c691906133a4565b91506000816001600160a01b03168360405160006040518083038185875af1925050503d8060008114612215576040519150601f19603f3d011682016040523d82523d6000602084013e61221a565b606091505b50509050806122545760405162461bcd60e51b815260206004820152600660248201526542534130313160d01b60448201526064016106fa565b506122bc565b8486612266898b6133bb565b61227091906133a4565b61227a91906133e7565b915061228784828461235b565b6122bc5760405162461bcd60e51b81526020600482015260066024820152652129a098189960d11b60448201526064016106fa565b509695505050505050565b3330146122ff5760405162461bcd60e51b815260206004820152600660248201526542534130333160d01b60448201526064016106fa565b565b6002546001600160a01b031633146122ff5760405162461bcd60e51b815260206004820152601b60248201527f77616c6c65743a206e6f742066726f6d20456e747279506f696e74000000000060448201526064016106fa565b604080516001600160a01b03841660248201526044808201849052825180830390910181526064909101909152602080820180516001600160e01b031663a9059cbb60e01b1781528251600093929184919082896127105a03f13d80156123cd57602081146123d557600093506123e0565b8193506123e0565b600051158215171593505b5050509392505050565b604080516001600160a01b038416602482015260448082018490528251808303909101815260649091019091526020810180516001600160e01b031663a9059cbb60e01b1790526118c7908490612618565b6000612495826040517f19457468657265756d205369676e6564204d6573736167653a0a3332000000006020820152603c8101829052600090605c01604051602081830303815290604052805190602001209050919050565b90506124e56124a8610160850185613538565b8080601f01602080910402602001604051908101604052809392919081815260200183838082843760009201919091525085939250506126899050565b6000546001600160a01b039081169116146118c75760405162461bcd60e51b815260206004820152601760248201527f77616c6c65743a2077726f6e67207369676e617475726500000000000000000060448201526064016106fa565b6000808052600160209081527fa6eef7e35abe7026729641147f7915573c7e97b47efa546f5f6e3230263bcb498054918401359261257f836133ce565b91905055146125c85760405162461bcd60e51b815260206004820152601560248201527477616c6c65743a20696e76616c6964206e6f6e636560581b60448201526064016106fa565b50565b80156125c857604051600090339060001990849084818181858888f193505050503d8060008114611cfb576040519150601f19603f3d011682016040523d82523d6000602084013e611cfb565b600080602060008451602086016000885af18061263b576040513d6000823e3d81fd5b50506000513d91508115612653578060011415612660565b6001600160a01b0384163b155b1561082257604051635274afe760e01b81526001600160a01b03851660048201526024016106fa565b600080600061269885856126ad565b915091506126a58161271b565b509392505050565b60008082516041036126e35760208301516040840151606085015160001a6126d7878285856128d1565b94509450505050612714565b825160400361270c576020830151604084015161270186838361296d565b935093505050612714565b506000905060025b9250929050565b600081600481111561272f5761272f61341c565b036127375750565b600181600481111561274b5761274b61341c565b036127985760405162461bcd60e51b815260206004820152601860248201527f45434453413a20696e76616c6964207369676e6174757265000000000000000060448201526064016106fa565b60028160048111156127ac576127ac61341c565b036127f95760405162461bcd60e51b815260206004820152601f60248201527f45434453413a20696e76616c6964207369676e6174757265206c656e6774680060448201526064016106fa565b600381600481111561280d5761280d61341c565b036128655760405162461bcd60e51b815260206004820152602260248201527f45434453413a20696e76616c6964207369676e6174757265202773272076616c604482015261756560f01b60648201526084016106fa565b60048160048111156128795761287961341c565b036125c85760405162461bcd60e51b815260206004820152602260248201527f45434453413a20696e76616c6964207369676e6174757265202776272076616c604482015261756560f01b60648201526084016106fa565b6000807f7fffffffffffffffffffffffffffffff5d576e7357a4501ddfe92f46681b20a08311156129085750600090506003612964565b8460ff16601b1415801561292057508460ff16601c14155b156129315750600090506004612964565b600061293f8787878761299c565b90506001600160a01b03811661295d57600060019250925050612964565b9150600090505b94509492505050565b6000806001600160ff1b03831660ff84901c601b0161298e878288856128d1565b935093505050935093915050565b6000806040518681528560208201528460408201528360608201526020816080836001600019fa91508051925060008152600060208201525050949350505050565b6001600160e01b0319811681146125c857600080fd5b600060208284031215612a0657600080fd5b813561212b816129de565b6001600160a01b03811681146125c857600080fd5b8035612a3181612a11565b919050565b600060208284031215612a4857600080fd5b813561212b81612a11565b60008083601f840112612a6557600080fd5b5081356001600160401b03811115612a7c57600080fd5b60208301915083602082850101111561271457600080fd5b60008060008060608587031215612aaa57600080fd5b8435612ab581612a11565b93506020850135925060408501356001600160401b03811115612ad757600080fd5b612ae387828801612a53565b95989497509550505050565b600060208284031215612b0157600080fd5b5035919050565b600080600060608486031215612b1d57600080fd5b8335612b2881612a11565b92506020840135612b3881612a11565b91506040840135612b4881612a11565b809150509250925092565b634e487b7160e01b600052604160045260246000fd5b60405160a081016001600160401b0381118282101715612b8b57612b8b612b53565b60405290565b600082601f830112612ba257600080fd5b81356001600160401b03811115612bbb57612bbb612b53565b604051601f8201601f19908116603f011681016001600160401b0381118282101715612be957612be9612b53565b604052818152838201602001851015612c0157600080fd5b816020850160208301376000918101602001919091529392505050565b803560028110612a3157600080fd5b600060a08284031215612c3f57600080fd5b612c47612b69565b90508135612c5481612a11565b81526020828101359082015260408201356001600160401b03811115612c7957600080fd5b612c8584828501612b91565b604083015250612c9760608301612c1e565b606082015260809182013591810191909152919050565b600060a08284031215612cc057600080fd5b612cc8612b69565b82358152602080840135908201526040808401359082015290506060820135612cf081612a11565b60608201526080820135612d0381612a11565b608082015292915050565b6000806000806101008587031215612d2557600080fd5b84356001600160401b03811115612d3b57600080fd5b612d4787828801612c2d565b94505060208501359250612d5e8660408701612cae565b915060e08501356001600160401b03811115612d7957600080fd5b612d8587828801612b91565b91505092959194509250565b60008060008060808587031215612da757600080fd5b8435612db281612a11565b93506020850135925060408501356001600160401b03811115612dd457600080fd5b612de087828801612b91565b925050612def60608601612c1e565b905092959194509250565b60005b83811015612e15578181015183820152602001612dfd565b50506000910152565b60008151808452612e36816020860160208601612dfa565b601f01601f19169290920160200192915050565b82151581526040602082015260006110346040830184612e1e565b600080600060e08486031215612e7a57600080fd5b83356001600160401b03811115612e9057600080fd5b612e9c86828701612c2d565b935050612eac8560208601612cae565b9295929450505060c0919091013590565b60208152600061212b6020830184612e1e565b600080600060608486031215612ee557600080fd5b8335925060208401356001600160401b03811115612f0257600080fd5b612f0e86828701612b91565b92505060408401356001600160401b03811115612f2a57600080fd5b612f3686828701612b91565b9150509250925092565b60008060008060008060c08789031215612f5957600080fd5b863595506020870135945060408701359350606087013592506080870135612f8081612a11565b915060a0870135612f9081612a11565b809150509295509295509295565b60008060408385031215612fb157600080fd5b8235612fbc81612a11565b946020939093013593505050565b6000806000806000806000806000806000806101608d8f031215612fed57600080fd5b612ff78d35612a11565b8c359b5060208d01359a506001600160401b0360408e0135111561301a57600080fd5b61302a8e60408f01358f01612a53565b909a50985061303b60608e01612c1e565b975060808d0135965060a08d0135955060c08d0135945060e08d013593506101008d013561306881612a11565b92506130776101208e01612a26565b915060006101408e01359050809150509295989b509295989b509295989b565b6000806000606084860312156130ac57600080fd5b83356130b781612a11565b925060208401356130c781612a11565b929592945050506040919091013590565b6000806000806000608086880312156130f057600080fd5b85356130fb81612a11565b94506020860135935060408601356001600160401b0381111561311d57600080fd5b61312988828901612a53565b909450925061313c905060608701612c1e565b90509295509295909350565b6040808252835190820181905260009060208501906060840190835b8181101561318b5783516001600160a01b0316835260209384019390920191600101613164565b50506001600160a01b039490941660209390930192909252509092915050565b60008083601f8401126131bd57600080fd5b5081356001600160401b038111156131d457600080fd5b6020830191508360208260051b850101111561271457600080fd5b6000806000806040858703121561320557600080fd5b84356001600160401b0381111561321b57600080fd5b613227878288016131ab565b90955093505060208501356001600160401b0381111561324657600080fd5b612ae3878288016131ab565b6000806040838503121561326557600080fd5b823561327081612a11565b9150602083013561328081612a11565b809150509250929050565b6000806000606084860312156132a057600080fd5b83356001600160401b038111156132b657600080fd5b840161018081870312156132c957600080fd5b95602085013595506040909401359392505050565b60208082526012908201527127b7363c9037bbb732b91037b91039b2b63360711b604082015260600190565b6001600160a01b038416815260606020820181905260009061332e90830185612e1e565b905060018060a01b0383166040830152949350505050565b60208082526028908201527f536d617274204163636f756e743a3a2053656e646572206973206e6f742061756040820152671d1a1bdc9a5e995960c21b606082015260800190565b634e487b7160e01b600052601160045260246000fd5b8082028115828204841417610f5e57610f5e61338e565b80820180821115610f5e57610f5e61338e565b6000600182016133e0576133e061338e565b5060010190565b60008261340457634e487b7160e01b600052601260045260246000fd5b500490565b81810381811115610f5e57610f5e61338e565b634e487b7160e01b600052602160045260246000fd5b8b81526001600160a01b038b166020820152604081018a90526060810189905261016081016002891061347557634e487b7160e01b600052602160045260246000fd5b8860808301528760a08301528660c08301528560e08301526134a36101008301866001600160a01b03169052565b6001600160a01b039390931661012082015261014001529998505050505050505050565b6040815260006134da6040830185612e1e565b82810360208401526121708185612e1e565b6000602082840312156134fe57600080fd5b815161212b816129de565b60ff8281168282160390811115610f5e57610f5e61338e565b634e487b7160e01b600052603260045260246000fd5b6000808335601e1984360301811261354f57600080fd5b8301803591506001600160401b0382111561356957600080fd5b60200191503681900382131561271457600080fd5b634e487b7160e01b600052600160045260246000fd5b600082516135a6818460208701612dfa565b919091019291505056fea26469706673582212206a7621fa6e425facde9546c5ef4aba5f475f68040fc21342b27a8ec403f49d0d64736f6c634300081a0033","linkReferences":{}},"methodIdentifiers":{"VERSION()":"ffa1ad74","checkSignatures(bytes32,bytes,bytes)":"934f3a11","disableModule(address,address)":"e009cfde","domainSeparator()":"f698da25","enableModule(address)":"610b5925","encodeTransactionData((address,uint256,bytes,uint8,uint256),(uint256,uint256,uint256,address,address),uint256)":"670578b3","entryPoint()":"b0d691fe","exec(address,uint256,bytes)":"0565bb67","execBatch(address[],bytes[])":"d0cb75fa","execFromEntryPoint(address,uint256,bytes)":"80c5c7d0","execTransaction((address,uint256,bytes,uint8,uint256),uint256,(uint256,uint256,uint256,address,address),bytes)":"20cf8fa4","execTransactionFromModule(address,uint256,bytes,uint8)":"468721a7","execTransactionFromModuleReturnData(address,uint256,bytes,uint8)":"5229073f","getChainId()":"3408e470","getModulesPaginated(address,uint256)":"cc2f8452","getNonce(uint256)":"3d46b819","getTransactionHash(address,uint256,bytes,uint8,uint256,uint256,uint256,uint256,address,address,uint256)":"abc1b745","handlePaymentRevert(uint256,uint256,uint256,uint256,address,address)":"a18f51e5","init(address,address,address)":"184b9559","initialize(address,address,address)":"c0c53b8b","isModuleEnabled(address)":"2d9ad53d","nonces(uint256)":"141a468c","owner()":"8da5cb5b","pullTokens(address,address,uint256)":"ac85dca7","requiredTxGas(address,uint256,bytes,uint8)":"c4ca3a9c","setFallbackHandler(address)":"f08a0323","setOwner(address)":"13af4035","supportsInterface(bytes4)":"01ffc9a7","transfer(address,uint256)":"a9059cbb","updateEntryPoint(address)":"1b71bb6e","updateImplementation(address)":"025b22bc","validateUserOp((address,uint256,bytes,bytes,uint256,uint256,uint256,uint256,uint256,address,bytes,bytes),bytes32,uint256)":"fcbac1f4"},"id":64}