{"abi":[{"type":"constructor","inputs":[{"name":"_implementation","type":"address","internalType":"address"}],"stateMutability":"nonpayable"},{"type":"function","name":"createSmartAccount","inputs":[{"name":"owner","type":"address","internalType":"address"}],"outputs":[{"name":"","type":"address","internalType":"address"}],"stateMutability":"nonpayable"},{"type":"function","name":"entryPoint","inputs":[],"outputs":[{"name":"","type":"address","internalType":"address"}],"stateMutability":"view"},{"type":"function","name":"implementation","inputs":[],"outputs":[{"name":"","type":"address","internalType":"address"}],"stateMutability":"view"},{"type":"event","name":"SmartAccountCreated","inputs":[{"name":"account","type":"address","indexed":true,"internalType":"address"},{"name":"owner","type":"address","indexed":true,"internalType":"address"}],"anonymous":false},{"type":"error","name":"FailedDeployment","inputs":[]},{"type":"error","name":"InsufficientBalance","inputs":[{"name":"balance","type":"uint256","internalType":"uint256"},{"name":"needed","type":"uint256","internalType":"uint256"}]}],"bytecode":{"object":"0x6080604052348015600f57600080fd5b506040516102fc3803806102fc833981016040819052602c916050565b600080546001600160a01b0319166001600160a01b0392909216919091179055607e565b600060208284031215606157600080fd5b81516001600160a01b0381168114607757600080fd5b9392505050565b61026f8061008d6000396000f3fe608060405234801561001057600080fd5b50600436106100415760003560e01c80635c60da1b14610046578063b0d691fe14610075578063c89cda6e14610088575b600080fd5b600054610059906001600160a01b031681565b6040516001600160a01b03909116815260200160405180910390f35b600154610059906001600160a01b031681565b610059610096366004610209565b6000805481906100ae906001600160a01b031661015c565b60015460405163c0c53b8b60e01b81526001600160a01b03868116600483015291821660248201526000604482015291925082169063c0c53b8b90606401600060405180830381600087803b15801561010657600080fd5b505af115801561011a573d6000803e3d6000fd5b50506040516001600160a01b038087169350841691507f11f81d728010658858b98bd3e5ece1f1a7a9caf6fb57f3742794cfc1c1e8aa9090600090a392915050565b600061016982600061016f565b92915050565b60008147101561019f5760405163cf47918160e01b81524760048201526024810183905260440160405180910390fd5b763d602d80600a3d3981f3363d3d373d3d3d363d730000008360601b60e81c176000526e5af43d82803e903d91602b57fd5bf38360781b176020526037600983f090506001600160a01b0381166101695760405163b06ebf3d60e01b815260040160405180910390fd5b60006020828403121561021b57600080fd5b81356001600160a01b038116811461023257600080fd5b939250505056fea2646970667358221220aea2afe30ed4623b027b082f5e9431365109187b113800f0463d1feaaaba6ea464736f6c634300081a0033","linkReferences":{}},"methodIdentifiers":{"createSmartAccount(address)":"c89cda6e","entryPoint()":"b0d691fe","implementation()":"5c60da1b"},"id":65}