{"abi":[{"type":"fallback","stateMutability":"nonpayable"},{"type":"function","name":"VERSION","inputs":[],"outputs":[{"name":"","type":"string","internalType":"string"}],"stateMutability":"view"},{"type":"function","name":"checkSignatures","inputs":[{"name":"dataHash","type":"bytes32","internalType":"bytes32"},{"name":"data","type":"bytes","internalType":"bytes"},{"name":"signatures","type":"bytes","internalType":"bytes"}],"outputs":[],"stateMutability":"view"},{"type":"function","name":"disableModule","inputs":[{"name":"prevModule","type":"address","internalType":"address"},{"name":"module","type":"address","internalType":"address"}],"outputs":[],"stateMutability":"nonpayable"},{"type":"function","name":"domainSeparator","inputs":[],"outputs":[{"name":"","type":"bytes32","internalType":"bytes32"}],"stateMutability":"view"},{"type":"function","name":"enableModule","inputs":[{"name":"module","type":"address","internalType":"address"}],"outputs":[],"stateMutability":"nonpayable"},{"type":"function","name":"encodeTransactionData","inputs":[{"name":"_tx","type":"tuple","internalType":"struct WalletStorage.Transaction","components":[{"name":"to","type":"address","internalType":"address"},{"name":"value","type":"uint256","internalType":"uint256"},{"name":"data","type":"bytes","internalType":"bytes"},{"name":"operation","type":"uint8","internalType":"enum Enum.Operation"},{"name":"targetTxGas","type":"uint256","internalType":"uint256"}]},{"name":"refundInfo","type":"tuple","internalType":"struct WalletStorage.FeeRefund","components":[{"name":"baseGas","type":"uint256","internalType":"uint256"},{"name":"gasPrice","type":"uint256","internalType":"uint256"},{"name":"tokenGasPriceFactor","type":"uint256","internalType":"uint256"},{"name":"gasToken","type":"address","internalType":"address"},{"name":"refundReceiver","type":"address","internalType":"address payable"}]},{"name":"_nonce","type":"uint256","internalType":"uint256"}],"outputs":[{"name":"","type":"bytes","internalType":"bytes"}],"stateMutability":"view"},{"type":"function","name":"entryPoint","inputs":[],"outputs":[{"name":"","type":"address","internalType":"address"}],"stateMutability":"view"},{"type":"function","name":"exec","inputs":[{"name":"dest","type":"address","internalType":"address"},{"name":"value","type":"uint256","internalType":"uint256"},{"name":"func","type":"bytes","internalType":"bytes"}],"outputs":[],"stateMutability":"nonpayable"},{"type":"function","name":"execBatch","inputs":[{"name":"dest","type":"address[]","internalType":"address[]"},{"name":"func","type":"bytes[]","internalType":"bytes[]"}],"outputs":[],"stateMutability":"nonpayable"},{"type":"function","name":"execFromEntryPoint","inputs":[{"name":"dest","type":"address","internalType":"address"},{"name":"value","type":"uint256","internalType":"uint256"},{"name":"func","type":"bytes","internalType":"bytes"}],"outputs":[],"stateMutability":"nonpayable"},{"type":"function","name":"execTransaction","inputs":[{"name":"_tx","type":"tuple","internalType":"struct WalletStorage.Transaction","components":[{"name":"to","type":"address","internalType":"address"},{"name":"value","type":"uint256","internalType":"uint256"},{"name":"data","type":"bytes","internalType":"bytes"},{"name":"operation","type":"uint8","internalType":"enum Enum.Operation"},{"name":"targetTxGas","type":"uint256","internalType":"uint256"}]},{"name":"batchId","type":"uint256","internalType":"uint256"},{"name":"refundInfo","type":"tuple","internalType":"struct WalletStorage.FeeRefund","components":[{"name":"baseGas","type":"uint256","internalType":"uint256"},{"name":"gasPrice","type":"uint256","internalType":"uint256"},{"name":"tokenGasPriceFactor","type":"uint256","internalType":"uint256"},{"name":"gasToken","type":"address","internalType":"address"},{"name":"refundReceiver","type":"address","internalType":"address payable"}]},{"name":"signatures","type":"bytes","internalType":"bytes"}],"outputs":[{"name":"success","type":"bool","internalType":"bool"}],"stateMutability":"payable"},{"type":"function","name":"execTransactionFromModule","inputs":[{"name":"to","type":"address","internalType":"address"},{"name":"value","type":"uint256","internalType":"uint256"},{"name":"data","type":"bytes","internalType":"bytes"},{"name":"operation","type":"uint8","internalType":"enum Enum.Operation"}],"outputs":[{"name":"success","type":"bool","internalType":"bool"}],"stateMutability":"nonpayable"},{"type":"function","name":"execTransactionFromModuleReturnData","inputs":[{"name":"to","type":"address","internalType":"address"},{"name":"value","type":"uint256","internalType":"uint256"},{"name":"data","type":"bytes","internalType":"bytes"},{"name":"operation","type":"uint8","internalType":"enum Enum.Operation"}],"outputs":[{"name":"success","type":"bool","internalType":"bool"},{"name":"returnData","type":"bytes","internalType":"bytes"}],"stateMutability":"nonpayable"},{"type":"function","name":"getChainId","inputs":[],"outputs":[{"name":"","type":"uint256","internalType":"uint256"}],"stateMutability":"view"},{"type":"function","name":"getModulesPaginated","inputs":[{"name":"start","type":"address","internalType":"address"},{"name":"pageSize","type":"uint256","internalType":"uint256"}],"outputs":[{"name":"array","type":"address[]","internalType":"address[]"},{"name":"next","type":"address","internalType":"address"}],"stateMutability":"view"},{"type":"function","name":"getNonce","inputs":[{"name":"batchId","type":"uint256","internalType":"uint256"}],"outputs":[{"name":"","type":"uint256","internalType":"uint256"}],"stateMutability":"view"},{"type":"function","name":"getTransactionHash","inputs":[{"name":"to","type":"address","internalType":"address"},{"name":"value","type":"uint256","internalType":"uint256"},{"name":"data","type":"bytes","internalType":"bytes"},{"name":"operation","type":"uint8","internalType":"enum Enum.Operation"},{"name":"targetTxGas","type":"uint256","internalType":"uint256"},{"name":"baseGas","type":"uint256","internalType":"uint256"},{"name":"gasPrice","type":"uint256","internalType":"uint256"},{"name":"tokenGasPriceFactor","type":"uint256","internalType":"uint256"},{"name":"gasToken","type":"address","internalType":"address"},{"name":"refundReceiver","type":"address","internalType":"address payable"},{"name":"_nonce","type":"uint256","internalType":"uint256"}],"outputs":[{"name":"","type":"bytes32","internalType":"bytes32"}],"stateMutability":"view"},{"type":"function","name":"handlePaymentRevert","inputs":[{"name":"gasUsed","type":"uint256","internalType":"uint256"},{"name":"baseGas","type":"uint256","internalType":"uint256"},{"name":"gasPrice","type":"uint256","internalType":"uint256"},{"name":"tokenGasPriceFactor","type":"uint256","internalType":"uint256"},{"name":"gasToken","type":"address","internalType":"address"},{"name":"refundReceiver","type":"address","internalType":"address payable"}],"outputs":[{"name":"payment","type":"uint256","internalType":"uint256"}],"stateMutability":"nonpayable"},{"type":"function","name":"init","inputs":[{"name":"_owner","type":"address","internalType":"address"},{"name":"_entryPoint","type":"address","internalType":"address"},{"name":"_handler","type":"address","internalType":"address"}],"outputs":[],"stateMutability":"nonpayable"},{"type":"function","name":"isModuleEnabled","inputs":[{"name":"module","type":"address","internalType":"address"}],"outputs":[{"name":"","type":"bool","internalType":"bool"}],"stateMutability":"view"},{"type":"function","name":"nonces","inputs":[{"name":"","type":"uint256","internalType":"uint256"}],"outputs":[{"name":"","type":"uint256","internalType":"uint256"}],"stateMutability":"view"},{"type":"function","name":"owner","inputs":[],"outputs":[{"name":"","type":"address","internalType":"address"}],"stateMutability":"view"},{"type":"function","name":"pullTokens","inputs":[{"name":"token","type":"address","internalType":"address"},{"name":"dest","type":"address","internalType":"address"},{"name":"amount","type":"uint256","internalType":"uint256"}],"outputs":[],"stateMutability":"nonpayable"},{"type":"function","name":"requiredTxGas","inputs":[{"name":"to","type":"address","internalType":"address"},{"name":"value","type":"uint256","internalType":"uint256"},{"name":"data","type":"bytes","internalType":"bytes"},{"name":"operation","type":"uint8","internalType":"enum Enum.Operation"}],"outputs":[{"name":"","type":"uint256","internalType":"uint256"}],"stateMutability":"nonpayable"},{"type":"function","name":"setFallbackHandler","inputs":[{"name":"handler","type":"address","internalType":"address"}],"outputs":[],"stateMutability":"nonpayable"},{"type":"function","name":"setOwner","inputs":[{"name":"_newOwner","type":"address","internalType":"address"}],"outputs":[],"stateMutability":"nonpayable"},{"type":"function","name":"supportsInterface","inputs":[{"name":"interfaceId","type":"bytes4","internalType":"bytes4"}],"outputs":[{"name":"","type":"bool","internalType":"bool"}],"stateMutability":"view"},{"type":"function","name":"transfer","inputs":[{"name":"dest","type":"address","internalType":"address payable"},{"name":"amount","type":"uint256","internalType":"uint256"}],"outputs":[],"stateMutability":"nonpayable"},{"type":"function","name":"updateEntryPoint","inputs":[{"name":"_entryPoint","type":"address","internalType":"address"}],"outputs":[],"stateMutability":"nonpayable"},{"type":"function","name":"updateImplementation","inputs":[{"name":"_implementation","type":"address","internalType":"address"}],"outputs":[],"stateMutability":"nonpayable"},{"type":"function","name":"validateUserOp","inputs":[{"name":"userOp","type":"tuple","internalType":"struct UserOperation","components":[{"name":"sender","type":"address","internalType":"address"},{"name":"nonce","type":"uint256","internalType":"uint256"},{"name":"initCode","type":"bytes","internalType":"bytes"},{"name":"callData","type":"bytes","internalType":"bytes"},{"name":"callGas","type":"uint256","internalType":"uint256"},{"name":"verificationGas","type":"uint256","internalType":"uint256"},{"name":"preVerificationGas","type":"uint256","internalType":"uint256"},{"name":"maxFeePerGas","type":"uint256","internalType":"uint256"},{"name":"maxPriorityFeePerGas","type":"uint256","internalType":"uint256"},{"name":"paymaster","type":"address","internalType":"address"},{"name":"paymasterData","type":"bytes","internalType":"bytes"},{"name":"signature","type":"bytes","internalType":"bytes"}]},{"name":"requestId","type":"bytes32","internalType":"bytes32"},{"name":"requiredPrefund","type":"uint256","internalType":"uint256"}],"outputs":[],"stateMutability":"nonpayable"},{"type":"event","name":"ChangedFallbackHandler","inputs":[{"name":"handler","type":"address","indexed":false,"internalType":"address"}],"anonymous":false},{"type":"event","name":"DisabledModule","inputs":[{"name":"module","type":"address","indexed":false,"internalType":"address"}],"anonymous":false},{"type":"event","name":"EOAChanged","inputs":[{"name":"_scw","type":"address","indexed":true,"internalType":"address"},{"name":"_oldEOA","type":"address","indexed":true,"internalType":"address"},{"name":"_newEOA","type":"address","indexed":true,"internalType":"address"}],"anonymous":false},{"type":"event","name":"EnabledModule","inputs":[{"name":"module","type":"address","indexed":false,"internalType":"address"}],"anonymous":false},{"type":"event","name":"EntryPointChanged","inputs":[{"name":"oldEntryPoint","type":"address","indexed":false,"internalType":"address"},{"name":"newEntryPoint","type":"address","indexed":false,"internalType":"address"}],"anonymous":false},{"type":"event","name":"ExecutionFailure","inputs":[{"name":"txHash","type":"bytes32","indexed":false,"internalType":"bytes32"},{"name":"payment","type":"uint256","indexed":false,"internalType":"uint256"}],"anonymous":false},{"type":"event","name":"ExecutionFromModuleFailure","inputs":[{"name":"module","type":"address","indexed":true,"internalType":"address"}],"anonymous":false},{"type":"event","name":"ExecutionFromModuleSuccess","inputs":[{"name":"module","type":"address","indexed":true,"internalType":"address"}],"anonymous":false},{"type":"event","name":"ExecutionSuccess","inputs":[{"name":"txHash","type":"bytes32","indexed":false,"internalType":"bytes32"},{"name":"payment","type":"uint256","indexed":false,"internalType":"uint256"}],"anonymous":false},{"type":"event","name":"ImplementationUpdated","inputs":[{"name":"_scw","type":"address","indexed":false,"internalType":"address"},{"name":"version","type":"string","indexed":false,"internalType":"string"},{"name":"newImplementation","type":"address","indexed":false,"internalType":"address"}],"anonymous":false},{"type":"event","name":"Initialized","inputs":[{"name":"version","type":"uint64","indexed":false,"internalType":"uint64"}],"anonymous":false},{"type":"error","name":"InvalidInitialization","inputs":[]},{"type":"error","name":"NotInitializing","inputs":[]},{"type":"error","name":"SafeERC20FailedOperation","inputs":[{"name":"token","type":"address","internalType":"address"}]}],"bytecode":{"object":"0x6080604052348015600f57600080fd5b506134f98061001f6000396000f3fe6080604052600436106101d85760003560e01c806380c5c7d011610102578063c4ca3a9c11610095578063f08a032311610064578063f08a032314610615578063f698da2514610635578063fcbac1f41461064a578063ffa1ad741461066a576101d8565b8063c4ca3a9c14610587578063cc2f8452146105a7578063d0cb75fa146105d5578063e009cfde146105f5576101d8565b8063a9059cbb116100d1578063a9059cbb14610507578063abc1b74514610527578063ac85dca714610547578063b0d691fe14610567576101d8565b806380c5c7d01461046f5780638da5cb5b1461048f578063934f3a11146104c7578063a18f51e5146104e7576101d8565b806320cf8fa41161017a578063468721a711610149578063468721a7146103d45780635229073f146103f4578063610b592514610422578063670578b314610442576101d8565b806320cf8fa4146103615780632d9ad53d146103745780633408e470146103945780633d46b819146103a7576101d8565b806313af4035116101b657806313af4035146102c6578063141a468c146102e6578063184b9559146103215780631b71bb6e14610341576101d8565b806301ffc9a71461023e578063025b22bc146102845780630565bb67146102a6575b3480156101e457600080fd5b507f6c9a6c4a39284e37ed1cf53d337577d14212a4870fb976a4366c693b939918d580548061020f57005b36600080373360601b365260008060143601600080855af190503d6000803e80610238573d6000fd5b503d6000f35b34801561024a57600080fd5b5061026f610259366004612907565b6001600160e01b0319166301ffc9a760e01b1490565b60405190151581526020015b60405180910390f35b34801561029057600080fd5b506102a461029f366004612949565b61069b565b005b3480156102b257600080fd5b506102a46102c13660046129a7565b61078c565b3480156102d257600080fd5b506102a46102e1366004612949565b6107fd565b3480156102f257600080fd5b50610313610301366004612a02565b60016020526000908152604090205481565b60405190815260200161027b565b34801561032d57600080fd5b506102a461033c366004612a1b565b6108f0565b34801561034d57600080fd5b506102a461035c366004612949565b610b9d565b61026f61036f366004612c21565b610caf565b34801561038057600080fd5b5061026f61038f366004612949565b610efe565b3480156103a057600080fd5b5046610313565b3480156103b357600080fd5b506103136103c2366004612a02565b60009081526001602052604090205490565b3480156103e057600080fd5b5061026f6103ef366004612ca4565b610f39565b34801561040057600080fd5b5061041461040f366004612ca4565b611011565b60405161027b929190612d5d565b34801561042e57600080fd5b506102a461043d366004612949565b611047565b34801561044e57600080fd5b5061046261045d366004612d78565b611186565b60405161027b9190612dd0565b34801561047b57600080fd5b506102a461048a3660046129a7565b611263565b34801561049b57600080fd5b506000546104af906001600160a01b031681565b6040516001600160a01b03909116815260200161027b565b3480156104d357600080fd5b506102a46104e2366004612de3565b61126b565b3480156104f357600080fd5b50610313610502366004612e53565b6115f7565b34801561051357600080fd5b506102a4610522366004612eb1565b611787565b34801561053357600080fd5b50610313610542366004612edd565b6118a1565b34801561055357600080fd5b506102a4610562366004612faa565b611974565b34801561057357600080fd5b506002546104af906001600160a01b031681565b34801561059357600080fd5b506103136105a2366004612feb565b6119aa565b3480156105b357600080fd5b506105c76105c2366004612eb1565b611a09565b60405161027b92919061305b565b3480156105e157600080fd5b506102a46105f0366004613102565b611b02565b34801561060157600080fd5b506102a4610610366004613165565b611c15565b34801561062157600080fd5b506102a4610630366004612949565b611d45565b34801561064157600080fd5b50610313611dae565b34801561065657600080fd5b506102a461066536600461319e565b611e05565b34801561067657600080fd5b5061046260405180604001604052806005815260200164312e302e3160d81b81525081565b6000546001600160a01b03163314806106b357503330145b6106d85760405162461bcd60e51b81526004016106cf906131f1565b60405180910390fd5b6001600160a01b0381163b6107285760405162461bcd60e51b815260206004820152601660248201527524a72b20a624a22fa4a6a82622a6a2a72a20aa24a7a760511b60448201526064016106cf565b61073181611e3f565b7f31c5374dcc95d137f3c21741a151157300dc87c02ffd59e4a177713557a916b13060405180604001604052806005815260200164312e302e3160d81b815250836040516107819392919061321d565b60405180910390a150565b6000546001600160a01b031633146107b65760405162461bcd60e51b81526004016106cf90613259565b6107f7848484848080601f016020809104026020016040519081016040528093929190818152602001838380828437600092019190915250611ebc92505050565b50505050565b6000546001600160a01b031633148061081557503330145b6108315760405162461bcd60e51b81526004016106cf906131f1565b6001600160a01b0381166108a45760405162461bcd60e51b815260206004820152603460248201527f536d617274204163636f756e743a3a206e6577205369676e61746f727920616460448201527364726573732063616e6e6f74206265207a65726f60601b60648201526084016106cf565b600080546001600160a01b0319166001600160a01b03831690811782556040519091829130917ff2c2b1b5312b1e31ad49a7d85acd6322ae6facc51488810b882ecdb4df861cd491a450565b7ff0c57e16840df040f15088dc2f81fe391c3923bec73e23a9662efc9c229c6a008054600160401b810460ff1615906001600160401b03166000811580156109355750825b90506000826001600160401b031660011480156109515750303b155b90508115801561095f575080155b1561097d5760405163f92ee8a960e01b815260040160405180910390fd5b845467ffffffffffffffff1916600117855583156109a757845460ff60401b1916600160401b1785555b6000546001600160a01b0316156109f65760405162461bcd60e51b8152602060048201526013602482015272105b1c9958591e481a5b9a5d1a585b1a5e9959606a1b60448201526064016106cf565b6002546001600160a01b031615610a455760405162461bcd60e51b8152602060048201526013602482015272105b1c9958591e481a5b9a5d1a585b1a5e9959606a1b60448201526064016106cf565b6001600160a01b038816610a8b5760405162461bcd60e51b815260206004820152600d60248201526c24b73b30b634b21037bbb732b960991b60448201526064016106cf565b6001600160a01b038716610ad65760405162461bcd60e51b8152602060048201526012602482015271125b9d985b1a5908115b9d1c9e5c1bda5b9d60721b60448201526064016106cf565b600080546001600160a01b03808b166001600160a01b031992831617909255600280548a84169216919091179055861615610b3357610b33867f6c9a6c4a39284e37ed1cf53d337577d14212a4870fb976a4366c693b939918d555565b610b4d600060405180602001604052806000815250611f2c565b8315610b9357845460ff60401b19168555604051600181527fc7f505b2f371ae2175ee4913f4499e1f2633a7b5936321eed1cdaeb6115181d29060200160405180910390a15b5050505050505050565b6000546001600160a01b0316331480610bb557503330145b610bd15760405162461bcd60e51b81526004016106cf906131f1565b6001600160a01b038116610c465760405162461bcd60e51b815260206004820152603660248201527f536d617274204163636f756e743a3a206e657720656e74727920706f696e7420604482015275616464726573732063616e6e6f74206265207a65726f60501b60648201526084016106cf565b600254604080516001600160a01b03928316815291831660208301527f450909c1478d09248269d4ad4fa8cba61ca3f50faed58c7aedefa51c7f62b83a910160405180910390a1600280546001600160a01b0319166001600160a01b0392909216919091179055565b600080610cbd3660086132b7565b5a610cca906152086132ce565b610cd491906132ce565b9050600080610cf78887600160008b815260200190815260200160002054611186565b6000888152600160205260408120805492935090610d14836132e1565b9091555050805160208201209150610d2d82828761126b565b50610d64603f88608001516040610d4491906132b7565b610d4e91906132fa565b6080890151610d5f906109c46132ce565b61202c565b610d70906101f46132ce565b5a1015610da85760405162461bcd60e51b815260206004820152600660248201526504253413031360d41b60448201526064016106cf565b610de88760000151886020015189604001518a606001518960200151600014610dd5578b60800151612045565b6109c45a610de3919061331c565b612045565b92508280610df95750608087015115155b80610e075750602085015115155b610e3c5760405162461bcd60e51b815260206004820152600660248201526542534130313360d01b60448201526064016106cf565b602085015160009015610e7557610e725a610e57908561331c565b8751602089015160408a015160608b015160808c015161208c565b90505b8315610eb95760408051838152602081018390527f442e715f626346e8c54381002da614f62bee8d27386535b2521ec8540898556e910160405180910390a1610ef3565b60408051838152602081018390527f23428b18acfb3ea64b08dc0c1d296ea9c09702c09083ca5272e64d115b687d23910160405180910390a15b505050949350505050565b600060016001600160a01b03831614801590610f3357506001600160a01b038281166000908152600360205260409020541615155b92915050565b600033600114801590610f635750336000908152600360205260409020546001600160a01b031615155b610f985760405162461bcd60e51b81526020600482015260066024820152651094d04c4c0d60d21b60448201526064016106cf565b610fa5858585855a612045565b90508015610fdd5760405133907f6895c13664aa4f67288b25d7a21d7aaa34916e355fb9b6fae0a139a9085becb890600090a2611009565b60405133907facd2c8702804128fdb0db2bb49f6d127dd0181c13fd45dbfe16de0930e2bd37590600090a25b949350505050565b6000606061102186868686610f39565b915060405160203d0181016040523d81523d6000602083013e8091505094509492505050565b61104f6121da565b6001600160a01b0381161580159061107157506001600160a01b038116600114155b6110a65760405162461bcd60e51b815260206004820152600660248201526542534131303160d01b60448201526064016106cf565b6001600160a01b0381811660009081526003602052604090205416156110f75760405162461bcd60e51b81526020600482015260066024820152652129a098981960d11b60448201526064016106cf565b600360209081527fa15bc60c955c405d20d9149c709e2460f1c2d9a497496a7f46004d1772c3054c80546001600160a01b03848116600081815260408082208054949095166001600160a01b0319948516179094556001905283549091168117909255519081527fecdf3a3effea5783a3c4c2140e677577666428d44ed9d474a0b3a4c9943f84409101610781565b82516020808501516040808701518051908401206060888101516080808b01518a518b8901518c860151938d01519751959a60009a6111f29a7feedfef42e81fe8cd0e4185e4320e9f8d52fd97eb890b85fa9bd7ad97c9a18de29a9299909890979692918f9101613345565b60408051601f1981840301815291905280516020909101209050601960f81b600160f81b61121e611dae565b6040516001600160f81b031993841660208201529290911660218301526022820152604281018290526062016040516020818303038152906040529150509392505050565b6107b6612214565b60208101516040820151604183015160ff16919060008084810361142b575082611297600160416132b7565b8310156112cf5760405162461bcd60e51b815260206004820152600660248201526542534130323160d01b60448201526064016106cf565b85516112dc8460206132ce565b11156113135760405162461bcd60e51b81526020600482015260066024820152652129a098191960d11b60448201526064016106cf565b602083870181015187519091829061132c9087906132ce565b61133691906132ce565b111561136d5760405162461bcd60e51b815260206004820152600660248201526542534130323360d01b60448201526064016106cf565b6040516320c13b0b60e01b808252888601602001916001600160a01b038516906320c13b0b906113a3908d9086906004016133da565b602060405180830381865afa1580156113c0573d6000803e3d6000fd5b505050506040513d601f19601f820116820180604052508101906113e491906133ff565b6001600160e01b031916146114245760405162461bcd60e51b81526020600482015260066024820152651094d04c0c8d60d21b60448201526064016106cf565b5050610b93565b601e8560ff161115611544576040517f19457468657265756d205369676e6564204d6573736167653a0a3332000000006020820152603c8101899052600190605c0160405160208183030381529060405280519060200120600487611490919061341c565b6040805160008152602081018083529390935260ff90911690820152606081018690526080810185905260a0016020604051602081039080840390855afa1580156114df573d6000803e3d6000fd5b5050604051601f1901516000549092506001600160a01b03808416911614905061153f5760405162461bcd60e51b8152602060048201526011602482015270494e56414c49445f5349474e415455524560781b60448201526064016106cf565b610b93565b6040805160008152602081018083528a905260ff871691810191909152606081018590526080810184905260019060a0016020604051602081039080840390855afa158015611597573d6000803e3d6000fd5b5050604051601f1901516000549092506001600160a01b038084169116149050610b935760405162461bcd60e51b8152602060048201526011602482015270494e56414c49445f5349474e415455524560781b60448201526064016106cf565b6000805a905060006001600160a01b038416156116145783611616565b325b90506001600160a01b0385166116dd573a8710611633573a611635565b865b61163f898b6132ce565b61164991906132b7565b92506000816001600160a01b03168460405160006040518083038185875af1925050503d8060008114611698576040519150601f19603f3d011682016040523d82523d6000602084013e61169d565b606091505b50509050806116d75760405162461bcd60e51b815260206004820152600660248201526542534130313160d01b60448201526064016106cf565b5061173f565b85876116e98a8c6132ce565b6116f391906132b7565b6116fd91906132fa565b925061170a85828561226e565b61173f5760405162461bcd60e51b81526020600482015260066024820152652129a098189960d11b60448201526064016106cf565b60005a61174c908461331c565b90508060405160200161176191815260200190565b60408051601f198184030181529082905262461bcd60e51b82526106cf91600401612dd0565b6000546001600160a01b031633146117b15760405162461bcd60e51b81526004016106cf90613259565b6001600160a01b0382166118075760405162461bcd60e51b815260206004820181905260248201527f7468697320616374696f6e2077696c6c206275726e20796f75722066756e647360448201526064016106cf565b6000826001600160a01b03168260405160006040518083038185875af1925050503d8060008114611854576040519150601f19603f3d011682016040523d82523d6000602084013e611859565b606091505b505090508061189c5760405162461bcd60e51b815260206004820152600f60248201526e1d1c985b9cd9995c8819985a5b1959608a1b60448201526064016106cf565b505050565b6000806040518060a001604052808f6001600160a01b031681526020018e81526020018d8d8080601f0160208091040260200160405190810160405280939291908181526020018383808284376000920191909152505050908252506020018b60018111156119125761191261332f565b815260209081018b90526040805160a0810182528b81529182018a905281018890526001600160a01b03808816606083015286166080820152909150611959828286611186565b80519060200120925050509c9b505050505050505050505050565b6000546001600160a01b0316331461199e5760405162461bcd60e51b81526004016106cf90613259565b826107f78184846122fd565b6000805a90506119f3878787878080601f01602080910402602001604051908101604052809392919081815260200183838082843760009201919091525089925050505a612045565b6119fc57600080fd5b60005a61174c908361331c565b60606000826001600160401b03811115611a2557611a25612a66565b604051908082528060200260200182016040528015611a4e578160200160208202803683370190505b506001600160a01b0380861660009081526003602052604081205492945091165b6001600160a01b03811615801590611a9157506001600160a01b038116600114155b8015611a9c57508482105b15611af45780848381518110611ab457611ab4613435565b6001600160a01b03928316602091820292909201810191909152918116600090815260039092526040909120541681611aec816132e1565b925050611a6f565b908352919491935090915050565b6000546001600160a01b03163314611b2c5760405162461bcd60e51b81526004016106cf90613259565b828114611b715760405162461bcd60e51b815260206004820152601360248201527277726f6e67206172726179206c656e6774687360681b60448201526064016106cf565b60005b83811015611c0e57611c06858583818110611b9157611b91613435565b9050602002016020810190611ba69190612949565b6000858585818110611bba57611bba613435565b9050602002810190611bcc919061344b565b8080601f016020809104026020016040519081016040528093929190818152602001838380828437600092019190915250611ebc92505050565b600101611b74565b5050505050565b611c1d6121da565b6001600160a01b03811615801590611c3f57506001600160a01b038116600114155b611c745760405162461bcd60e51b815260206004820152600660248201526542534131303160d01b60448201526064016106cf565b6001600160a01b03828116600090815260036020526040902054811690821614611cc95760405162461bcd60e51b815260206004820152600660248201526542534131303360d01b60448201526064016106cf565b6001600160a01b038181166000818152600360209081526040808320805488871685528285208054919097166001600160a01b03199182161790965592849052825490941690915591519081527faab4fa2b463f581b2b32cb3b7e3b704b9ce37cc209b5fb4d77e593ace4054276910160405180910390a15050565b611d4d6121da565b611d75817f6c9a6c4a39284e37ed1cf53d337577d14212a4870fb976a4366c693b939918d555565b6040516001600160a01b03821681527f5ac6c46c93c8d0e53714ba3b53db3e7c046da994313d7ed0d192028bc7c228b090602001610781565b60007f47e79534a245952e8b16893a336b85a3d9ea9fa8c573f3d803afb92a794692184660408051602081019390935282015230606082015260800160405160208183030381529060405280519060200120905090565b611e0d612214565b611e17838361234f565b611e24604084018461344b565b9050600003611e3657611e3683612455565b61189c816124de565b611e6a60017f37722d148fb373b961a84120b6c8d209709b45377878a466db32bbc40d95af2761331c565b7f37722d148fb373b961a84120b6c8d209709b45377878a466db32bbc40d95af2614611e9857611e98613491565b7f37722d148fb373b961a84120b6c8d209709b45377878a466db32bbc40d95af2655565b600080846001600160a01b03168484604051611ed891906134a7565b60006040518083038185875af1925050503d8060008114611f15576040519150601f19603f3d011682016040523d82523d6000602084013e611f1a565b606091505b509150915081611c0e57805160208201fd5b600160005260036020527fa15bc60c955c405d20d9149c709e2460f1c2d9a497496a7f46004d1772c3054c546001600160a01b031615611f975760405162461bcd60e51b815260206004820152600660248201526504253413130360d41b60448201526064016106cf565b6001600081905260036020527fa15bc60c955c405d20d9149c709e2460f1c2d9a497496a7f46004d1772c3054c80546001600160a01b03191690911790556001600160a01b0382161561202857611ff38260008360015a612045565b6120285760405162461bcd60e51b815260206004820152600660248201526504253413030360d41b60448201526064016106cf565b5050565b60008183101561203c578161203e565b825b9392505050565b6000600183600181111561205b5761205b61332f565b03612073576000808551602087018986f49050612083565b600080855160208701888a87f190505b95945050505050565b6000806001600160a01b038316156120a457826120a6565b325b90506001600160a01b03841661216d573a86106120c3573a6120c5565b855b6120cf888a6132ce565b6120d991906132b7565b91506000816001600160a01b03168360405160006040518083038185875af1925050503d8060008114612128576040519150601f19603f3d011682016040523d82523d6000602084013e61212d565b606091505b50509050806121675760405162461bcd60e51b815260206004820152600660248201526542534130313160d01b60448201526064016106cf565b506121cf565b8486612179898b6132ce565b61218391906132b7565b61218d91906132fa565b915061219a84828461226e565b6121cf5760405162461bcd60e51b81526020600482015260066024820152652129a098189960d11b60448201526064016106cf565b509695505050505050565b3330146122125760405162461bcd60e51b815260206004820152600660248201526542534130333160d01b60448201526064016106cf565b565b6002546001600160a01b031633146122125760405162461bcd60e51b815260206004820152601b60248201527f77616c6c65743a206e6f742066726f6d20456e747279506f696e74000000000060448201526064016106cf565b604080516001600160a01b03841660248201526044808201849052825180830390910181526064909101909152602080820180516001600160e01b031663a9059cbb60e01b1781528251600093929184919082896127105a03f13d80156122e057602081146122e857600093506122f3565b8193506122f3565b600051158215171593505b5050509392505050565b604080516001600160a01b038416602482015260448082018490528251808303909101815260649091019091526020810180516001600160e01b031663a9059cbb60e01b17905261189c90849061252b565b60006123a8826040517f19457468657265756d205369676e6564204d6573736167653a0a3332000000006020820152603c8101829052600090605c01604051602081830303815290604052805190602001209050919050565b90506123f86123bb61016085018561344b565b8080601f016020809104026020016040519081016040528093929190818152602001838380828437600092019190915250859392505061259c9050565b6000546001600160a01b0390811691161461189c5760405162461bcd60e51b815260206004820152601760248201527f77616c6c65743a2077726f6e67207369676e617475726500000000000000000060448201526064016106cf565b6000808052600160209081527fa6eef7e35abe7026729641147f7915573c7e97b47efa546f5f6e3230263bcb4980549184013592612492836132e1565b91905055146124db5760405162461bcd60e51b815260206004820152601560248201527477616c6c65743a20696e76616c6964206e6f6e636560581b60448201526064016106cf565b50565b80156124db57604051600090339060001990849084818181858888f193505050503d8060008114611c0e576040519150601f19603f3d011682016040523d82523d6000602084013e611c0e565b600080602060008451602086016000885af18061254e576040513d6000823e3d81fd5b50506000513d91508115612566578060011415612573565b6001600160a01b0384163b155b156107f757604051635274afe760e01b81526001600160a01b03851660048201526024016106cf565b60008060006125ab85856125c0565b915091506125b88161262e565b509392505050565b60008082516041036125f65760208301516040840151606085015160001a6125ea878285856127e4565b94509450505050612627565b825160400361261f5760208301516040840151612614868383612880565b935093505050612627565b506000905060025b9250929050565b60008160048111156126425761264261332f565b0361264a5750565b600181600481111561265e5761265e61332f565b036126ab5760405162461bcd60e51b815260206004820152601860248201527f45434453413a20696e76616c6964207369676e6174757265000000000000000060448201526064016106cf565b60028160048111156126bf576126bf61332f565b0361270c5760405162461bcd60e51b815260206004820152601f60248201527f45434453413a20696e76616c6964207369676e6174757265206c656e6774680060448201526064016106cf565b60038160048111156127205761272061332f565b036127785760405162461bcd60e51b815260206004820152602260248201527f45434453413a20696e76616c6964207369676e6174757265202773272076616c604482015261756560f01b60648201526084016106cf565b600481600481111561278c5761278c61332f565b036124db5760405162461bcd60e51b815260206004820152602260248201527f45434453413a20696e76616c6964207369676e6174757265202776272076616c604482015261756560f01b60648201526084016106cf565b6000807f7fffffffffffffffffffffffffffffff5d576e7357a4501ddfe92f46681b20a083111561281b5750600090506003612877565b8460ff16601b1415801561283357508460ff16601c14155b156128445750600090506004612877565b6000612852878787876128af565b90506001600160a01b03811661287057600060019250925050612877565b9150600090505b94509492505050565b6000806001600160ff1b03831660ff84901c601b016128a1878288856127e4565b935093505050935093915050565b6000806040518681528560208201528460408201528360608201526020816080836001600019fa91508051925060008152600060208201525050949350505050565b6001600160e01b0319811681146124db57600080fd5b60006020828403121561291957600080fd5b813561203e816128f1565b6001600160a01b03811681146124db57600080fd5b803561294481612924565b919050565b60006020828403121561295b57600080fd5b813561203e81612924565b60008083601f84011261297857600080fd5b5081356001600160401b0381111561298f57600080fd5b60208301915083602082850101111561262757600080fd5b600080600080606085870312156129bd57600080fd5b84356129c881612924565b93506020850135925060408501356001600160401b038111156129ea57600080fd5b6129f687828801612966565b95989497509550505050565b600060208284031215612a1457600080fd5b5035919050565b600080600060608486031215612a3057600080fd5b8335612a3b81612924565b92506020840135612a4b81612924565b91506040840135612a5b81612924565b809150509250925092565b634e487b7160e01b600052604160045260246000fd5b60405160a081016001600160401b0381118282101715612a9e57612a9e612a66565b60405290565b600082601f830112612ab557600080fd5b81356001600160401b03811115612ace57612ace612a66565b604051601f8201601f19908116603f011681016001600160401b0381118282101715612afc57612afc612a66565b604052818152838201602001851015612b1457600080fd5b816020850160208301376000918101602001919091529392505050565b80356002811061294457600080fd5b600060a08284031215612b5257600080fd5b612b5a612a7c565b90508135612b6781612924565b81526020828101359082015260408201356001600160401b03811115612b8c57600080fd5b612b9884828501612aa4565b604083015250612baa60608301612b31565b606082015260809182013591810191909152919050565b600060a08284031215612bd357600080fd5b612bdb612a7c565b82358152602080840135908201526040808401359082015290506060820135612c0381612924565b60608201526080820135612c1681612924565b608082015292915050565b6000806000806101008587031215612c3857600080fd5b84356001600160401b03811115612c4e57600080fd5b612c5a87828801612b40565b94505060208501359250612c718660408701612bc1565b915060e08501356001600160401b03811115612c8c57600080fd5b612c9887828801612aa4565b91505092959194509250565b60008060008060808587031215612cba57600080fd5b8435612cc581612924565b93506020850135925060408501356001600160401b03811115612ce757600080fd5b612cf387828801612aa4565b925050612d0260608601612b31565b905092959194509250565b60005b83811015612d28578181015183820152602001612d10565b50506000910152565b60008151808452612d49816020860160208601612d0d565b601f01601f19169290920160200192915050565b82151581526040602082015260006110096040830184612d31565b600080600060e08486031215612d8d57600080fd5b83356001600160401b03811115612da357600080fd5b612daf86828701612b40565b935050612dbf8560208601612bc1565b9295929450505060c0919091013590565b60208152600061203e6020830184612d31565b600080600060608486031215612df857600080fd5b8335925060208401356001600160401b03811115612e1557600080fd5b612e2186828701612aa4565b92505060408401356001600160401b03811115612e3d57600080fd5b612e4986828701612aa4565b9150509250925092565b60008060008060008060c08789031215612e6c57600080fd5b863595506020870135945060408701359350606087013592506080870135612e9381612924565b915060a0870135612ea381612924565b809150509295509295509295565b60008060408385031215612ec457600080fd5b8235612ecf81612924565b946020939093013593505050565b6000806000806000806000806000806000806101608d8f031215612f0057600080fd5b612f0a8d35612924565b8c359b5060208d01359a506001600160401b0360408e01351115612f2d57600080fd5b612f3d8e60408f01358f01612966565b909a509850612f4e60608e01612b31565b975060808d0135965060a08d0135955060c08d0135945060e08d013593506101008d0135612f7b81612924565b9250612f8a6101208e01612939565b915060006101408e01359050809150509295989b509295989b509295989b565b600080600060608486031215612fbf57600080fd5b8335612fca81612924565b92506020840135612fda81612924565b929592945050506040919091013590565b60008060008060006080868803121561300357600080fd5b853561300e81612924565b94506020860135935060408601356001600160401b0381111561303057600080fd5b61303c88828901612966565b909450925061304f905060608701612b31565b90509295509295909350565b6040808252835190820181905260009060208501906060840190835b8181101561309e5783516001600160a01b0316835260209384019390920191600101613077565b50506001600160a01b039490941660209390930192909252509092915050565b60008083601f8401126130d057600080fd5b5081356001600160401b038111156130e757600080fd5b6020830191508360208260051b850101111561262757600080fd5b6000806000806040858703121561311857600080fd5b84356001600160401b0381111561312e57600080fd5b61313a878288016130be565b90955093505060208501356001600160401b0381111561315957600080fd5b6129f6878288016130be565b6000806040838503121561317857600080fd5b823561318381612924565b9150602083013561319381612924565b809150509250929050565b6000806000606084860312156131b357600080fd5b83356001600160401b038111156131c957600080fd5b840161018081870312156131dc57600080fd5b95602085013595506040909401359392505050565b60208082526012908201527127b7363c9037bbb732b91037b91039b2b63360711b604082015260600190565b6001600160a01b038416815260606020820181905260009061324190830185612d31565b905060018060a01b0383166040830152949350505050565b60208082526028908201527f536d617274204163636f756e743a3a2053656e646572206973206e6f742061756040820152671d1a1bdc9a5e995960c21b606082015260800190565b634e487b7160e01b600052601160045260246000fd5b8082028115828204841417610f3357610f336132a1565b80820180821115610f3357610f336132a1565b6000600182016132f3576132f36132a1565b5060010190565b60008261331757634e487b7160e01b600052601260045260246000fd5b500490565b81810381811115610f3357610f336132a1565b634e487b7160e01b600052602160045260246000fd5b8b81526001600160a01b038b166020820152604081018a90526060810189905261016081016002891061338857634e487b7160e01b600052602160045260246000fd5b8860808301528760a08301528660c08301528560e08301526133b66101008301866001600160a01b03169052565b6001600160a01b039390931661012082015261014001529998505050505050505050565b6040815260006133ed6040830185612d31565b82810360208401526120838185612d31565b60006020828403121561341157600080fd5b815161203e816128f1565b60ff8281168282160390811115610f3357610f336132a1565b634e487b7160e01b600052603260045260246000fd5b6000808335601e1984360301811261346257600080fd5b8301803591506001600160401b0382111561347c57600080fd5b60200191503681900382131561262757600080fd5b634e487b7160e01b600052600160045260246000fd5b600082516134b9818460208701612d0d565b919091019291505056fea26469706673582212209def8a6fa3b278103c1a87772f133a89a844e1fb2b1e871f4226841f60f6d4f064736f6c634300081a0033","linkReferences":{}},"methodIdentifiers":{"VERSION()":"ffa1ad74","checkSignatures(bytes32,bytes,bytes)":"934f3a11","disableModule(address,address)":"e009cfde","domainSeparator()":"f698da25","enableModule(address)":"610b5925","encodeTransactionData((address,uint256,bytes,uint8,uint256),(uint256,uint256,uint256,address,address),uint256)":"670578b3","entryPoint()":"b0d691fe","exec(address,uint256,bytes)":"0565bb67","execBatch(address[],bytes[])":"d0cb75fa","execFromEntryPoint(address,uint256,bytes)":"80c5c7d0","execTransaction((address,uint256,bytes,uint8,uint256),uint256,(uint256,uint256,uint256,address,address),bytes)":"20cf8fa4","execTransactionFromModule(address,uint256,bytes,uint8)":"468721a7","execTransactionFromModuleReturnData(address,uint256,bytes,uint8)":"5229073f","getChainId()":"3408e470","getModulesPaginated(address,uint256)":"cc2f8452","getNonce(uint256)":"3d46b819","getTransactionHash(address,uint256,bytes,uint8,uint256,uint256,uint256,uint256,address,address,uint256)":"abc1b745","handlePaymentRevert(uint256,uint256,uint256,uint256,address,address)":"a18f51e5","init(address,address,address)":"184b9559","isModuleEnabled(address)":"2d9ad53d","nonces(uint256)":"141a468c","owner()":"8da5cb5b","pullTokens(address,address,uint256)":"ac85dca7","requiredTxGas(address,uint256,bytes,uint8)":"c4ca3a9c","setFallbackHandler(address)":"f08a0323","setOwner(address)":"13af4035","supportsInterface(bytes4)":"01ffc9a7","transfer(address,uint256)":"a9059cbb","updateEntryPoint(address)":"1b71bb6e","updateImplementation(address)":"025b22bc","validateUserOp((address,uint256,bytes,bytes,uint256,uint256,uint256,uint256,uint256,address,bytes,bytes),bytes32,uint256)":"fcbac1f4"},"id":47}